{
  "_format": "hh3-artifact-1",
  "contractName": "OptimisticResolver",
  "sourceName": "contracts/resolvers/OptimisticResolver.sol",
  "abi": [
    {
      "inputs": [
        {
          "internalType": "address",
          "name": "_registry",
          "type": "address"
        }
      ],
      "stateMutability": "nonpayable",
      "type": "constructor"
    },
    {
      "inputs": [
        {
          "internalType": "enum TOCState",
          "name": "state",
          "type": "uint8"
        }
      ],
      "name": "CannotClarifyAfterResolution",
      "type": "error"
    },
    {
      "inputs": [
        {
          "internalType": "uint256",
          "name": "tocId",
          "type": "uint256"
        },
        {
          "internalType": "uint256",
          "name": "clarificationId",
          "type": "uint256"
        }
      ],
      "name": "ClarificationNotPending",
      "type": "error"
    },
    {
      "inputs": [],
      "name": "EmptyQuestion",
      "type": "error"
    },
    {
      "inputs": [],
      "name": "InvalidPayload",
      "type": "error"
    },
    {
      "inputs": [
        {
          "internalType": "uint32",
          "name": "templateId",
          "type": "uint32"
        }
      ],
      "name": "InvalidTemplate",
      "type": "error"
    },
    {
      "inputs": [
        {
          "internalType": "uint256",
          "name": "tocId",
          "type": "uint256"
        }
      ],
      "name": "MaxClarificationsReached",
      "type": "error"
    },
    {
      "inputs": [
        {
          "internalType": "address",
          "name": "caller",
          "type": "address"
        }
      ],
      "name": "NotOwner",
      "type": "error"
    },
    {
      "inputs": [
        {
          "internalType": "address",
          "name": "caller",
          "type": "address"
        },
        {
          "internalType": "address",
          "name": "creator",
          "type": "address"
        }
      ],
      "name": "OnlyCreator",
      "type": "error"
    },
    {
      "inputs": [],
      "name": "OnlyRegistry",
      "type": "error"
    },
    {
      "inputs": [
        {
          "internalType": "uint256",
          "name": "resolutionTime",
          "type": "uint256"
        },
        {
          "internalType": "uint256",
          "name": "current",
          "type": "uint256"
        }
      ],
      "name": "ResolutionTimeInPast",
      "type": "error"
    },
    {
      "inputs": [
        {
          "internalType": "uint256",
          "name": "length",
          "type": "uint256"
        },
        {
          "internalType": "uint256",
          "name": "max",
          "type": "uint256"
        }
      ],
      "name": "TextTooLong",
      "type": "error"
    },
    {
      "inputs": [
        {
          "internalType": "uint256",
          "name": "tocId",
          "type": "uint256"
        }
      ],
      "name": "TocNotManaged",
      "type": "error"
    },
    {
      "anonymous": false,
      "inputs": [
        {
          "indexed": true,
          "internalType": "uint256",
          "name": "tocId",
          "type": "uint256"
        },
        {
          "indexed": false,
          "internalType": "uint256",
          "name": "clarificationId",
          "type": "uint256"
        }
      ],
      "name": "ClarificationAccepted",
      "type": "event"
    },
    {
      "anonymous": false,
      "inputs": [
        {
          "indexed": true,
          "internalType": "uint256",
          "name": "tocId",
          "type": "uint256"
        },
        {
          "indexed": false,
          "internalType": "uint256",
          "name": "clarificationId",
          "type": "uint256"
        }
      ],
      "name": "ClarificationRejected",
      "type": "event"
    },
    {
      "anonymous": false,
      "inputs": [
        {
          "indexed": true,
          "internalType": "uint256",
          "name": "tocId",
          "type": "uint256"
        },
        {
          "indexed": true,
          "internalType": "address",
          "name": "creator",
          "type": "address"
        },
        {
          "indexed": false,
          "internalType": "uint256",
          "name": "clarificationId",
          "type": "uint256"
        },
        {
          "indexed": false,
          "internalType": "string",
          "name": "text",
          "type": "string"
        }
      ],
      "name": "ClarificationRequested",
      "type": "event"
    },
    {
      "anonymous": false,
      "inputs": [
        {
          "indexed": true,
          "internalType": "uint256",
          "name": "tocId",
          "type": "uint256"
        },
        {
          "indexed": true,
          "internalType": "uint32",
          "name": "templateId",
          "type": "uint32"
        },
        {
          "indexed": true,
          "internalType": "address",
          "name": "creator",
          "type": "address"
        },
        {
          "indexed": false,
          "internalType": "string",
          "name": "questionPreview",
          "type": "string"
        }
      ],
      "name": "QuestionCreated",
      "type": "event"
    },
    {
      "anonymous": false,
      "inputs": [
        {
          "indexed": true,
          "internalType": "uint256",
          "name": "tocId",
          "type": "uint256"
        },
        {
          "indexed": true,
          "internalType": "address",
          "name": "proposer",
          "type": "address"
        },
        {
          "indexed": false,
          "internalType": "bool",
          "name": "answer",
          "type": "bool"
        },
        {
          "indexed": false,
          "internalType": "string",
          "name": "justification",
          "type": "string"
        }
      ],
      "name": "ResolutionProposed",
      "type": "event"
    },
    {
      "inputs": [],
      "name": "MAX_CLARIFICATIONS",
      "outputs": [
        {
          "internalType": "uint256",
          "name": "",
          "type": "uint256"
        }
      ],
      "stateMutability": "view",
      "type": "function"
    },
    {
      "inputs": [],
      "name": "MAX_TEXT_LENGTH",
      "outputs": [
        {
          "internalType": "uint256",
          "name": "",
          "type": "uint256"
        }
      ],
      "stateMutability": "view",
      "type": "function"
    },
    {
      "inputs": [],
      "name": "TEMPLATE_ARBITRARY",
      "outputs": [
        {
          "internalType": "uint32",
          "name": "",
          "type": "uint32"
        }
      ],
      "stateMutability": "view",
      "type": "function"
    },
    {
      "inputs": [],
      "name": "TEMPLATE_COUNT",
      "outputs": [
        {
          "internalType": "uint32",
          "name": "",
          "type": "uint32"
        }
      ],
      "stateMutability": "view",
      "type": "function"
    },
    {
      "inputs": [],
      "name": "TEMPLATE_EVENT",
      "outputs": [
        {
          "internalType": "uint32",
          "name": "",
          "type": "uint32"
        }
      ],
      "stateMutability": "view",
      "type": "function"
    },
    {
      "inputs": [],
      "name": "TEMPLATE_NONE",
      "outputs": [
        {
          "internalType": "uint32",
          "name": "",
          "type": "uint32"
        }
      ],
      "stateMutability": "view",
      "type": "function"
    },
    {
      "inputs": [],
      "name": "TEMPLATE_SPORTS",
      "outputs": [
        {
          "internalType": "uint32",
          "name": "",
          "type": "uint32"
        }
      ],
      "stateMutability": "view",
      "type": "function"
    },
    {
      "inputs": [
        {
          "internalType": "uint256",
          "name": "tocId",
          "type": "uint256"
        },
        {
          "internalType": "string",
          "name": "clarification",
          "type": "string"
        }
      ],
      "name": "addClarification",
      "outputs": [],
      "stateMutability": "nonpayable",
      "type": "function"
    },
    {
      "inputs": [
        {
          "internalType": "uint256",
          "name": "tocId",
          "type": "uint256"
        },
        {
          "internalType": "uint256",
          "name": "clarificationId",
          "type": "uint256"
        }
      ],
      "name": "approveClarification",
      "outputs": [],
      "stateMutability": "nonpayable",
      "type": "function"
    },
    {
      "inputs": [
        {
          "internalType": "uint256",
          "name": "tocId",
          "type": "uint256"
        }
      ],
      "name": "getClarifications",
      "outputs": [
        {
          "internalType": "string[]",
          "name": "",
          "type": "string[]"
        }
      ],
      "stateMutability": "view",
      "type": "function"
    },
    {
      "inputs": [
        {
          "internalType": "uint256",
          "name": "tocId",
          "type": "uint256"
        }
      ],
      "name": "getPendingClarifications",
      "outputs": [
        {
          "internalType": "uint256[]",
          "name": "ids",
          "type": "uint256[]"
        },
        {
          "internalType": "string[]",
          "name": "texts",
          "type": "string[]"
        }
      ],
      "stateMutability": "view",
      "type": "function"
    },
    {
      "inputs": [
        {
          "internalType": "uint256",
          "name": "tocId",
          "type": "uint256"
        }
      ],
      "name": "getQuestionData",
      "outputs": [
        {
          "internalType": "uint32",
          "name": "templateId",
          "type": "uint32"
        },
        {
          "internalType": "address",
          "name": "creator",
          "type": "address"
        },
        {
          "internalType": "uint256",
          "name": "createdAt",
          "type": "uint256"
        }
      ],
      "stateMutability": "view",
      "type": "function"
    },
    {
      "inputs": [
        {
          "internalType": "uint32",
          "name": "",
          "type": "uint32"
        }
      ],
      "name": "getTemplateAnswerType",
      "outputs": [
        {
          "internalType": "enum AnswerType",
          "name": "",
          "type": "uint8"
        }
      ],
      "stateMutability": "pure",
      "type": "function"
    },
    {
      "inputs": [],
      "name": "getTemplateCount",
      "outputs": [
        {
          "internalType": "uint32",
          "name": "count",
          "type": "uint32"
        }
      ],
      "stateMutability": "pure",
      "type": "function"
    },
    {
      "inputs": [
        {
          "internalType": "uint256",
          "name": "tocId",
          "type": "uint256"
        }
      ],
      "name": "getTocDetails",
      "outputs": [
        {
          "internalType": "uint32",
          "name": "templateId",
          "type": "uint32"
        },
        {
          "internalType": "bytes",
          "name": "creationPayload",
          "type": "bytes"
        }
      ],
      "stateMutability": "view",
      "type": "function"
    },
    {
      "inputs": [
        {
          "internalType": "uint256",
          "name": "tocId",
          "type": "uint256"
        }
      ],
      "name": "getTocQuestion",
      "outputs": [
        {
          "internalType": "string",
          "name": "question",
          "type": "string"
        }
      ],
      "stateMutability": "view",
      "type": "function"
    },
    {
      "inputs": [
        {
          "internalType": "uint256",
          "name": "tocId",
          "type": "uint256"
        }
      ],
      "name": "isTocManaged",
      "outputs": [
        {
          "internalType": "bool",
          "name": "",
          "type": "bool"
        }
      ],
      "stateMutability": "view",
      "type": "function"
    },
    {
      "inputs": [
        {
          "internalType": "uint32",
          "name": "templateId",
          "type": "uint32"
        }
      ],
      "name": "isValidTemplate",
      "outputs": [
        {
          "internalType": "bool",
          "name": "",
          "type": "bool"
        }
      ],
      "stateMutability": "pure",
      "type": "function"
    },
    {
      "inputs": [
        {
          "internalType": "uint256",
          "name": "tocId",
          "type": "uint256"
        },
        {
          "internalType": "uint32",
          "name": "templateId",
          "type": "uint32"
        },
        {
          "internalType": "bytes",
          "name": "payload",
          "type": "bytes"
        },
        {
          "internalType": "address",
          "name": "creator",
          "type": "address"
        }
      ],
      "name": "onTocCreated",
      "outputs": [
        {
          "internalType": "enum TOCState",
          "name": "initialState",
          "type": "uint8"
        }
      ],
      "stateMutability": "nonpayable",
      "type": "function"
    },
    {
      "inputs": [],
      "name": "owner",
      "outputs": [
        {
          "internalType": "address",
          "name": "",
          "type": "address"
        }
      ],
      "stateMutability": "view",
      "type": "function"
    },
    {
      "inputs": [],
      "name": "registry",
      "outputs": [
        {
          "internalType": "contract ITruthEngine",
          "name": "",
          "type": "address"
        }
      ],
      "stateMutability": "view",
      "type": "function"
    },
    {
      "inputs": [
        {
          "internalType": "uint256",
          "name": "tocId",
          "type": "uint256"
        },
        {
          "internalType": "uint256",
          "name": "clarificationId",
          "type": "uint256"
        }
      ],
      "name": "rejectClarification",
      "outputs": [],
      "stateMutability": "nonpayable",
      "type": "function"
    },
    {
      "inputs": [
        {
          "internalType": "uint256",
          "name": "tocId",
          "type": "uint256"
        },
        {
          "internalType": "string",
          "name": "text",
          "type": "string"
        }
      ],
      "name": "requestClarification",
      "outputs": [
        {
          "internalType": "enum ClarificationResponse",
          "name": "response",
          "type": "uint8"
        },
        {
          "internalType": "uint256",
          "name": "clarificationId",
          "type": "uint256"
        }
      ],
      "stateMutability": "nonpayable",
      "type": "function"
    },
    {
      "inputs": [
        {
          "internalType": "uint256",
          "name": "tocId",
          "type": "uint256"
        },
        {
          "internalType": "address",
          "name": "caller",
          "type": "address"
        },
        {
          "internalType": "bytes",
          "name": "answerPayload",
          "type": "bytes"
        }
      ],
      "name": "resolveToc",
      "outputs": [
        {
          "internalType": "bytes",
          "name": "result",
          "type": "bytes"
        }
      ],
      "stateMutability": "nonpayable",
      "type": "function"
    }
  ],
  "bytecode": "0x60c0346100aa57601f61273738819003918201601f19168301916001600160401b038311848410176100ae578084926020946040528339810103126100aa57516001600160a01b038116908190036100aa576080523360a05260405161267490816100c38239608051818181610163015281816102410152818161066701528181610884015281816109e50152610c48015260a0518181816104f6015281816107d10152610e1e0152f35b5f80fd5b634e487b7160e01b5f52604160045260245ffdfe60806040526004361015610011575f80fd5b5f3560e01c806325b3a76214610f725780632bba693214610e0e5780632f36c0a514610df4578063404609a114610c08578063417763c514610bec5780635016959a1461046857806350453fe314610bd15780635d48c503146109895780635d4efbe71461096a57806373c515d91461094557806374a9f6ce146108b35780637b1039991461086f5780637fbfe2ae146108415780637ff2fb77146108005780638da5cb5b146107bc5780638f20947c1461061957806399824495146105fe578063a0bb3cfe146105e3578063b94b8133146105c8578063be21b8a5146104e6578063cc9144a614610483578063df41b9d114610468578063edcf0871146102015763f74bfd4214610121575f80fd5b346101fd5760203660031901126101fd57600435805f525f60205260405f2060405191630d99a55d60e11b835260048301526101e08260248160018060a01b037f0000000000000000000000000000000000000000000000000000000000000000165afa9081156101f2576060925f926101c1575b50600163ffffffff82541692818060a01b039051169101549060405192835260208301526040820152f35b6101e49192506101e03d81116101eb575b6101dc81836112ac565b810190611593565b905f610196565b503d6101d2565b6040513d5f823e3d90fd5b5f80fd5b346101fd5761020f366111e9565b90825f525f602052600160405f2001541561045557604051630d99a55d60e11b8152600481018490526101e0816024817f00000000000000000000000000000000000000000000000000000000000000006001600160a01b03165afa9081156101f2575f91610436575b5080516001600160a01b0316338190036104205750612000831161040757604001805160098110156103de5760031415806103f2575b6103c25750825f526001602052600a60405f205410156103af577f5401007b5f2285cc5a113f52dc84df17c0c78dd97f087ef5d490bbbcc4cfddb6916103a6602061039660028295885f5260048452602160405f209687549761031189611239565b9055878b7fed2a9a23bdfa721e6eb54960071b9605b70f3fe9d6491eb35d796eae2d756b2f60405180610347868933978461168f565b0390a361035342611fee565b9281604051978895605b60f81b828801528051918291018688015e8501916102e960f51b85840152602383013701015f838201520301601f1981018352826112ac565b855f526001845260405f20611435565b604051908152a2005b82631f930e0b60e01b5f5260045260245ffd5b5160098110156103de57631ea537bf60e21b5f5260045260245ffd5b634e487b7160e01b5f52602160045260245ffd5b50805160098110156103de57600114156102af565b8263f4eb2b2d60e01b5f5260045261200060245260445ffd5b63f73f2b7f60e01b5f523360045260245260445ffd5b61044f91506101e03d81116101eb576101dc81836112ac565b84610279565b826376deb76160e11b5f5260045260245ffd5b346101fd575f3660031901126101fd57602060405160048152f35b346101fd5760203660031901126101fd576004355f525f602052600260405f206104c663ffffffff825416916104bf6040518095819301611344565b03836112ac565b6104e2604051928392835260406020840152604083019061112a565b0390f35b346101fd576104f4366111a6565b7f00000000000000000000000000000000000000000000000000000000000000006001600160a01b031633036105b557815f52600360205260405f20815f5260205260ff60405f2054161561059f5760207fe8c6f53989adc838a6c363fb89e0753cbe11c6f5375f493b8fd8a37842ad500591835f526003825260405f20815f52825260405f2060ff198154169055835f526002825260405f20815f5282526103a660405f20611531565b90634a0cd80160e01b5f5260045260245260445ffd5b63245aecd360e01b5f523360045260245ffd5b346101fd575f3660031901126101fd57602060405160018152f35b346101fd575f3660031901126101fd576020604051600a8152f35b346101fd575f3660031901126101fd57602060405160028152f35b346101fd5760603660031901126101fd576024356001600160a01b03811690600435908290036101fd576044356001600160401b0381116101fd576106629036906004016111bc565b9092907f00000000000000000000000000000000000000000000000000000000000000006001600160a01b031633036107ad57825f525f602052600160405f20015415610455578301926020818503126101fd578035906001600160401b0382116101fd5701916040838503126101fd5760405192604084018481106001600160401b0382111761079957604052803580151581036101fd5784526020810135906001600160401b0382116101fd576104e2957f74fcb68308c0b401a23557aa25040f9403f8a36913fec680dbefd6ac20dfccd0926107419201611fd3565b80602086015284511515610767604051928392835260406020840152604083019061112a565b0390a3511515604051906020820152602081526107856040826112ac565b60405191829160208352602083019061112a565b634e487b7160e01b5f52604160045260245ffd5b6310f5403960e31b5f5260045ffd5b346101fd575f3660031901126101fd576040517f00000000000000000000000000000000000000000000000000000000000000006001600160a01b03168152602090f35b346101fd5760203660031901126101fd57602063ffffffff610820611226565b168015159081610836575b506040519015158152f35b60049150108261082b565b346101fd5760203660031901126101fd576004355f525f6020526020600160405f2001541515604051908152f35b346101fd575f3660031901126101fd576040517f00000000000000000000000000000000000000000000000000000000000000006001600160a01b03168152602090f35b346101fd5760203660031901126101fd576004355f52600160205260405f2080546108dd816112cd565b916108eb60405193846112ac565b81835260208301905f5260205f205f915b83831061091957604051602080825281906104e29082018861114e565b600160208192604051610937816109308189611344565b03826112ac565b8152019201920191906108fc565b346101fd5760203660031901126101fd5761095e611226565b50602060405160018152f35b346101fd5760203660031901126101fd576104e261078560043561170d565b346101fd5760803660031901126101fd5760243563ffffffff81166004358183036101fd576044356001600160401b0381116101fd576109cd9036906004016111bc565b6064356001600160a01b03811695908690036101fd577f00000000000000000000000000000000000000000000000000000000000000006001600160a01b031633036107ad5784158015610bc6575b610bb357610a2d8284600293612036565b92610a5060405191610a3e8361125b565b878352602083019442865236916116d7565b9260408201938452855f525f60205263ffffffff60405f2092511663ffffffff198354161782555160018201550190518051906001600160401b03821161079957610aa582610a9f855461130c565b856113f0565b602090601f8311600114610b2a57827f6d98073b1aab51484b07e06665caa3430f284816b1660b604340ed6199fd4f0d9593610b119593610afb935f92610b1f575b50508160011b915f199060031b1c19161790565b905560405191829160208352602083019061112a565b0390a4602060405160038152f35b015190508a80610ae7565b90601f19831691845f52815f20925f5b818110610b9b57509260019285927f6d98073b1aab51484b07e06665caa3430f284816b1660b604340ed6199fd4f0d9896610b11989610610b83575b505050811b019055610785565b01515f1960f88460031b161c19169055898080610b76565b92936020600181928786015181550195019301610b3a565b8463ae7bea2d60e01b5f5260045260245ffd5b506004851015610a1c565b346101fd575f3660031901126101fd57602060405160038152f35b346101fd575f3660031901126101fd5760206040516120008152f35b346101fd57610c16366111e9565b90825f525f602052600160405f2001541561045557604051630d99a55d60e11b8152600481018490526101e0816024817f00000000000000000000000000000000000000000000000000000000000000006001600160a01b03165afa9081156101f2575f91610dd5575b5080516001600160a01b0316338190036104205750612000831161040757604001805160098110156103de576003141580610dc0575b6103c25750825f526001602052600a60405f205410156103af5791610d8a6020610d7a6002604096855f52600484526021885f2097885498610cf78a611239565b905588887fed2a9a23bdfa721e6eb54960071b9605b70f3fe9d6491eb35d796eae2d756b2f8c5180610d2c868933978461168f565b0390a3610d3842611fee565b92818b51978895605b60f81b828801528051918291018688015e8501916102e960f51b85840152602383013701015f838201520301601f1981018352826112ac565b825f526001602052845f20611435565b7f5401007b5f2285cc5a113f52dc84df17c0c78dd97f087ef5d490bbbcc4cfddb660208451848152a28151905f82526020820152f35b50805160098110156103de5760011415610cb6565b610dee91506101e03d81116101eb576101dc81836112ac565b84610c80565b346101fd575f3660031901126101fd5760206040515f8152f35b346101fd57610e1c366111a6565b7f00000000000000000000000000000000000000000000000000000000000000006001600160a01b031633036105b557815f52600360205260405f20815f5260205260ff60405f2054161561059f57815f526001602052600a60405f20541015610f5f5760207f5401007b5f2285cc5a113f52dc84df17c0c78dd97f087ef5d490bbbcc4cfddb691835f526002825260405f20815f528252610f27826103966002610930610ed360405f2060405192838092611344565b602184610edf42611fee565b92604051968794605b60f81b828701528051918291018587015e8401906102e960f51b84830152805192839101602383015e01015f838201520301601f1981018352826112ac565b835f526003825260405f20815f52825260405f2060ff198154169055835f526002825260405f20815f5282526103a660405f20611531565b50631f930e0b60e01b5f5260045260245ffd5b346101fd5760203660031901126101fd576004355f815f52600460205260405f2054905f5b8281106110ef5750610fa8816112cd565b91610fb660405193846112ac565b818352610fc2826112cd565b602084019490601f1901368637610fd8836112cd565b92610fe660405194856112ac565b808452610ff5601f19916112cd565b015f5b8181106110de5750505f5f5b838110611059575050505060405191604083019060408452518091526060830193905f5b8181106110435784806104e28887838203602085015261114e565b8251865260209586019590920191600101611028565b825f52600360205260405f20815f5260205260ff60405f205416611080575b600101611004565b906110d681836110926001948a6112e4565b52845f52600260205260405f20845f526020526109306110bb60405f2060405192838092611344565b6110c582896112e4565b526110d081886112e4565b50611239565b919050611078565b806060602080938801015201610ff8565b835f52600360205260405f20815f5260205260ff60405f205416611116575b600101610f97565b90611122600191611239565b91905061110e565b805180835260209291819084018484015e5f828201840152601f01601f1916010190565b9080602083519182815201916020808360051b8301019401925f915b83831061117957505050505090565b9091929394602080611197600193601f19868203018752895161112a565b9701930193019193929061116a565b60409060031901126101fd576004359060243590565b9181601f840112156101fd578235916001600160401b0383116101fd57602083818601950101116101fd57565b9060406003198301126101fd5760043591602435906001600160401b0382116101fd57611218916004016111bc565b9091565b600311156103de57565b6004359063ffffffff821682036101fd57565b5f1981146112475760010190565b634e487b7160e01b5f52601160045260245ffd5b606081019081106001600160401b0382111761079957604052565b60c081019081106001600160401b0382111761079957604052565b608081019081106001600160401b0382111761079957604052565b90601f801991011681019081106001600160401b0382111761079957604052565b6001600160401b0381116107995760051b60200190565b80518210156112f85760209160051b010190565b634e487b7160e01b5f52603260045260245ffd5b90600182811c9216801561133a575b602083101461132657565b634e487b7160e01b5f52602260045260245ffd5b91607f169161131b565b5f92918154916113538361130c565b80835292600181169081156113a8575060011461136f57505050565b5f9081526020812093945091925b83831061138e575060209250010190565b60018160209294939454838587010152019101919061137d565b915050602093945060ff929192191683830152151560051b010190565b80548210156112f8575f5260205f2001905f90565b8181106113e5575050565b5f81556001016113da565b9190601f81116113ff57505050565b611429925f5260205f20906020601f840160051c8301931061142b575b601f0160051c01906113da565b565b909150819061141c565b9190918054680100000000000000008110156107995761145a916001820181556113c5565b61151e5782516001600160401b038111610799576114828161147c845461130c565b846113f0565b6020601f82116001146114c05781906114b19394955f926114b55750508160011b915f199060031b1c19161790565b9055565b015190505f80610ae7565b601f19821690835f52805f20915f5b818110611506575095836001959697106114ee575b505050811b019055565b01515f1960f88460031b161c191690555f80806114e4565b9192602060018192868b0151815501940192016114cf565b634e487b7160e01b5f525f60045260245ffd5b61153b815461130c565b9081611545575050565b81601f5f9311600114611556575055565b8183526020832061157291601f0160051c8101906001016113da565b8082528160208120915555565b51906001600160a01b03821682036101fd57565b90816101e09103126101fd57604051906101e082018281106001600160401b03821117610799576040526115c68161157f565b82526115d46020820161157f565b6020830152604081015160098110156101fd57604083015260608101519060048210156101fd576101c09160608401526080810151608084015260a081015160a084015260c081015160c084015260e081015160e08401526101008101516101008401526101208101516101208401526101408101516101408401526101608101516101608401526101808101516101808401526116756101a0820161157f565b6101a0840152015160048110156101fd576101c082015290565b91926060938192845260406020850152816040850152848401375f828201840152601f01601f1916010190565b6001600160401b03811161079957601f01601f191660200190565b9291926116e3826116bc565b916116f160405193846112ac565b8294818452818301116101fd578281602093845f960137010152565b805f525f60205260405f20600181015415611fa857805463ffffffff16600181036118fd57509061174a6002926104bf6040518095819301611344565b815182019060208201926020818403126101fd576020810151906001600160401b0382116101fd570191608090839003126101fd5760405161178b81611291565b60208301516001600160401b0381116101fd578460206117ad9286010161238b565b815260408301516001600160401b0381116101fd578460206117d19286010161238b565b602082019081526060840151906001600160401b0382116101fd57601560206118f594600f828960238261182f60806118fa9f839f908460139e61181693010161238b565b948560408a015201519687606082015251995196611fee565b956040519d8e9a620289d160ed1b828d0152805191829101858d015e8a019061050560f11b848301526c02232b9b1b934b83a34b7b71d1609d1b6025830152805192839101603283015e01019061050560f11b848301527202932b9b7b63aba34b7b71029b7bab931b29d1606d1b6011830152805192839101602483015e01019061050560f11b848301527002932b9b7b63aba34b7b7102a34b6b29d1607d1b6017830152805192839101602883015e01015f838201520301601f1981018452836112ac565b612496565b90565b60028103611d88575061191c6002916109306040518094819301611344565b805181019060208201906020818403126101fd576020810151906001600160401b0382116101fd57019160c090839003126101fd576040519161195e83611276565b60208101516001600160401b0381116101fd578260206119809284010161238b565b835260408101516001600160401b0381116101fd578260206119a49284010161238b565b91602084019283526060820151906001600160401b0382116101fd5760206119ce9284010161238b565b92604081019384526080820151916060820192835260a08101519060038210156101fd5760c0906080840192835201519260a083019384526020809681958294604051611a1b85826112ac565b5f90528051611a298161121c565b611a328161121c565b611c2757505081604051611a476040826112ac565b60068152652ba4a72722a960d11b828201529381604051611a696060826112ac565b603581527f5265736f6c7665732059455320696620686f6d65207465616d2077696e732c20828201527427279034b31030bbb0bc903a32b0b6903bb4b7399760591b6040820152975b51995193519151611ac290611fee565b936040519b8c9b818d01620289d160ed1b90528c815192839201906023015e8b0190602382016201016960ed1b9052805192839101602683015e016023019060038201630103b39960e51b9052805192839101600783015e016003019061050560f11b6004830152600682016a023b0b6b2902a34b6b29d160ad1b9052805192839101601183015e016004019061050560f11b600d830152600f82016e028bab2b9ba34b7b7102a3cb8329d1608d1b9052805192839101601e83015e01600d019061050560f11b6011830152601382016b02932b9b7b63aba34b7b71d160a51b9052805192839101601f83015e600560f91b9101601f8101919091527f4f76657274696d6520636f756e74732e2049662067616d652069732063616e6360208201527f656c6c65642c207265736f6c7665732076696120646973707574652e00000000604082015203603c81018252611c1e90605c01826112ac565b6118fa91612496565b93600184929551611c378161121c565b611c408161121c565b03611ceb578180611ce56001604b611c81662386f26fc10000604051611c676040826112ac565b600681526514d41491505160d21b878201529b51056125e2565b6040519485917f5265736f6c7665732059455320696620686f6d65207465616d20636f76657273828401526a01039b83932b0b21037b3160ad1b60408401528051918291018484015e8101601760f91b838201520301601e198101845201826112ac565b97611ab2565b8180611ce560016044611d2b662386f26fc10000604051611d0d6040826112ac565b600a81526927ab22a92faaa72222a960b11b878201529b51056125e2565b6040519485917f5265736f6c7665732059455320696620746f74616c2073636f7265206973206f828401526303b32b9160e51b60408401528051918291018484015e8101601760f91b838201520301601e198101845201826112ac565b600314611dbf575050604051611d9f6040826112ac565b601081526f556e6b6e6f776e2074656d706c61746560801b602082015290565b611dd56002916109306040518094819301611344565b805181019160208301916020818503126101fd576020810151906001600160401b0382116101fd570192606090849003126101fd5760405191611e178361125b565b60208401516001600160401b0381116101fd57816020611e399287010161238b565b83526040840151906001600160401b0382116101fd57600c60209460178688604b82611e8d6060611e7760399a6118fa9f6118f59d8691010161238b565b9485848a01520151968760408201525196611fee565b926040519b8c977f513a2057696c6c2074686520666f6c6c6f77696e67206576656e74206f636375828a015263391f850560e11b60408a015266022bb32b73a1d160cd1b60448a0152805191829101858a015e87019061050560f11b848301527402b32b934b334b1b0ba34b7b71029b7bab931b29d1605d1b604d830152805192839101606283015e01019061050560f11b848301526902232b0b23634b7329d160b51b6019830152805192839101602383015e010161050560f11b838201527f5265736f6c76657320594553206966206576656e74206f636375727320627920600e8201527f646561646c696e652c204e4f206f74686572776973652e000000000000000000602e820152030160198101855201836112ac565b5050604051611fb86040826112ac565b600b81526a556e6b6e6f776e20544f4360a81b602082015290565b9080601f830112156101fd578160206118fa933591016116d7565b6118fa602a611ffe6020936123d1565b604051938491693a34b6b2b9ba30b6b81d60b11b828401528051918291018484015e81015f838201520301601f1981018352826112ac565b90919063ffffffff166001810361215d57508101906020818303126101fd578035906001600160401b0382116101fd57016080818303126101fd576040519161207e83611291565b81356001600160401b0381116101fd578161209a918401611fd3565b835260208201356001600160401b0381116101fd57816120bb918401611fd3565b90602084019182526040830135906001600160401b0382116101fd576120e2918401611fd3565b6040840152606080840192013582528251511561214e5782515161200081116121365750515161200081116121365750514281111561212057505190565b63243e37af60e21b5f526004524260245260445ffd5b63f4eb2b2d60e01b5f5260045261200060245260445ffd5b630d5003f360e01b5f5260045ffd5b600281036122c457508101906020818303126101fd578035906001600160401b0382116101fd570160c0818303126101fd5760405161219b81611276565b81356001600160401b0381116101fd57836121b7918401611fd3565b815260208201356001600160401b0381116101fd57836121d8918401611fd3565b92602082019384526040830135906001600160401b0382116101fd576121ff918401611fd3565b91604082019280845260608301916060810135835260808101359060038210156101fd5760a0916080860152013560a0840152845151159081156122ba575b5061214e57514281111561212057506020926002846118fa94818060049651955192519260405199878b985191829101848a015e8701906101d160f51b83830152805192839101602283015e010190630103b39960e51b84830152805192839101600683015e01015f838201520301601f1981018352826112ac565b905051155f61223e565b929190600384146122e2578363ae7bea2d60e01b5f5260045260245ffd5b908092935001906020818303126101fd578035906001600160401b0382116101fd57016060818303126101fd576040519161231c8361125b565b81356001600160401b0381116101fd5781612338918401611fd3565b83526020820135906001600160401b0382116101fd57612359918301611fd3565b6020830152604080830191013581528151511561214e5781515161200081116121365750514281111561212057505190565b81601f820112156101fd578051906123a2826116bc565b926123b060405194856112ac565b828452602083830101116101fd57815f9260208093018386015e8301015290565b8015612476575f81805b61246257506123e9816116bc565b906123f760405192836112ac565b808252601f19612406826116bc565b013660208401375b8092801561245b575f198201918211611247578193600a8206603001928360301161124757845111156112f857600a9260f81b6001600160f81b0319165f1a908401601f0153049161240e565b5050905090565b9061246e600a91611239565b9104806123db565b506040516124856040826112ac565b60018152600360fc1b602082015290565b5f52600160205260405f209081549081156125dc576124f26011602080936040969596519481869251918291018484015e810170050521b630b934b334b1b0ba34b7b7399d60791b838201520301600e198101845201826112ac565b915f915b8183106125035750505090565b90919261251084836113c5565b50602060405192805191829101602085015e82019061516960ed1b60208301525f9181549161253e8361130c565b92600181169081156125b15750600114612575575b5050509061256c8160019303601f1981018352826112ac565b930191906124f6565b909192505f5260205f205f905b83821061259a5750500160230161256c826001612553565b805482840160230152602090910190600101612582565b86955060039250602091509261256c946001979460ff19166023830152801515020101019293612553565b91505090565b5f81126125f2576118fa906123d1565b600160ff1b8114611247576118fa602161260f6020935f036123d1565b604051938491602d60f81b828401528051918291018484015e81015f838201520301601f1981018352826112ac56fea2646970667358221220fe561ed2427f9a945e938c5ea4c29b86c6b526badb0800be97bc17887a39cc0464736f6c634300081d0033",
  "linkReferences": {},
  "deployedLinkReferences": {},
  "immutableReferences": {
    "14460": [
      {
        "length": 32,
        "start": 355
      },
      {
        "length": 32,
        "start": 577
      },
      {
        "length": 32,
        "start": 1639
      },
      {
        "length": 32,
        "start": 2180
      },
      {
        "length": 32,
        "start": 2533
      },
      {
        "length": 32,
        "start": 3144
      }
    ],
    "14462": [
      {
        "length": 32,
        "start": 1270
      },
      {
        "length": 32,
        "start": 2001
      },
      {
        "length": 32,
        "start": 3614
      }
    ]
  },
  "inputSourceName": "project/contracts/resolvers/OptimisticResolver.sol",
  "buildInfoId": "solc-0_8_29-d52a32f795c814f269e8229cee8d3b684800d7d9"
}