{
  "_format": "hh3-artifact-1",
  "contractName": "PythPriceResolver",
  "sourceName": "contracts/resolvers/PythPriceResolver.sol",
  "abi": [
    {
      "inputs": [
        {
          "internalType": "address",
          "name": "_pyth",
          "type": "address"
        },
        {
          "internalType": "address",
          "name": "_registry",
          "type": "address"
        }
      ],
      "stateMutability": "nonpayable",
      "type": "constructor"
    },
    {
      "inputs": [
        {
          "internalType": "uint256",
          "name": "deadline",
          "type": "uint256"
        },
        {
          "internalType": "uint256",
          "name": "current",
          "type": "uint256"
        }
      ],
      "name": "DeadlineNotReached",
      "type": "error"
    },
    {
      "inputs": [
        {
          "internalType": "uint256",
          "name": "deadline",
          "type": "uint256"
        },
        {
          "internalType": "uint256",
          "name": "current",
          "type": "uint256"
        }
      ],
      "name": "DeadlinePassed",
      "type": "error"
    },
    {
      "inputs": [],
      "name": "InvalidPayload",
      "type": "error"
    },
    {
      "inputs": [],
      "name": "InvalidPriceData",
      "type": "error"
    },
    {
      "inputs": [
        {
          "internalType": "uint32",
          "name": "templateId",
          "type": "uint32"
        }
      ],
      "name": "InvalidTemplate",
      "type": "error"
    },
    {
      "inputs": [],
      "name": "OnlyRegistry",
      "type": "error"
    },
    {
      "inputs": [
        {
          "internalType": "uint256",
          "name": "publishTime",
          "type": "uint256"
        },
        {
          "internalType": "uint256",
          "name": "deadline",
          "type": "uint256"
        }
      ],
      "name": "PriceDataTooOld",
      "type": "error"
    },
    {
      "inputs": [
        {
          "internalType": "uint256",
          "name": "tocId",
          "type": "uint256"
        }
      ],
      "name": "TocNotManaged",
      "type": "error"
    },
    {
      "inputs": [],
      "name": "PRICE_TOLERANCE_SECONDS",
      "outputs": [
        {
          "internalType": "uint256",
          "name": "",
          "type": "uint256"
        }
      ],
      "stateMutability": "view",
      "type": "function"
    },
    {
      "inputs": [],
      "name": "TEMPLATE_COUNT",
      "outputs": [
        {
          "internalType": "uint32",
          "name": "",
          "type": "uint32"
        }
      ],
      "stateMutability": "view",
      "type": "function"
    },
    {
      "inputs": [],
      "name": "TEMPLATE_RANGE",
      "outputs": [
        {
          "internalType": "uint32",
          "name": "",
          "type": "uint32"
        }
      ],
      "stateMutability": "view",
      "type": "function"
    },
    {
      "inputs": [],
      "name": "TEMPLATE_REACHED_BY",
      "outputs": [
        {
          "internalType": "uint32",
          "name": "",
          "type": "uint32"
        }
      ],
      "stateMutability": "view",
      "type": "function"
    },
    {
      "inputs": [],
      "name": "TEMPLATE_SNAPSHOT",
      "outputs": [
        {
          "internalType": "uint32",
          "name": "",
          "type": "uint32"
        }
      ],
      "stateMutability": "view",
      "type": "function"
    },
    {
      "inputs": [
        {
          "internalType": "uint256",
          "name": "tocId",
          "type": "uint256"
        }
      ],
      "name": "getRangeData",
      "outputs": [
        {
          "components": [
            {
              "internalType": "bytes32",
              "name": "priceId",
              "type": "bytes32"
            },
            {
              "internalType": "int64",
              "name": "lowerBound",
              "type": "int64"
            },
            {
              "internalType": "int64",
              "name": "upperBound",
              "type": "int64"
            },
            {
              "internalType": "uint256",
              "name": "deadline",
              "type": "uint256"
            }
          ],
          "internalType": "struct PythPriceResolver.RangeData",
          "name": "",
          "type": "tuple"
        }
      ],
      "stateMutability": "view",
      "type": "function"
    },
    {
      "inputs": [
        {
          "internalType": "uint256",
          "name": "tocId",
          "type": "uint256"
        }
      ],
      "name": "getReachedByData",
      "outputs": [
        {
          "components": [
            {
              "internalType": "bytes32",
              "name": "priceId",
              "type": "bytes32"
            },
            {
              "internalType": "int64",
              "name": "targetPrice",
              "type": "int64"
            },
            {
              "internalType": "bool",
              "name": "isAbove",
              "type": "bool"
            },
            {
              "internalType": "uint256",
              "name": "deadline",
              "type": "uint256"
            },
            {
              "internalType": "bool",
              "name": "reached",
              "type": "bool"
            }
          ],
          "internalType": "struct PythPriceResolver.ReachedByData",
          "name": "",
          "type": "tuple"
        }
      ],
      "stateMutability": "view",
      "type": "function"
    },
    {
      "inputs": [
        {
          "internalType": "uint256",
          "name": "tocId",
          "type": "uint256"
        }
      ],
      "name": "getSnapshotData",
      "outputs": [
        {
          "components": [
            {
              "internalType": "bytes32",
              "name": "priceId",
              "type": "bytes32"
            },
            {
              "internalType": "int64",
              "name": "threshold",
              "type": "int64"
            },
            {
              "internalType": "bool",
              "name": "isAbove",
              "type": "bool"
            },
            {
              "internalType": "uint256",
              "name": "deadline",
              "type": "uint256"
            }
          ],
          "internalType": "struct PythPriceResolver.SnapshotData",
          "name": "",
          "type": "tuple"
        }
      ],
      "stateMutability": "view",
      "type": "function"
    },
    {
      "inputs": [
        {
          "internalType": "uint32",
          "name": "templateId",
          "type": "uint32"
        }
      ],
      "name": "getTemplateAnswerType",
      "outputs": [
        {
          "internalType": "enum AnswerType",
          "name": "",
          "type": "uint8"
        }
      ],
      "stateMutability": "pure",
      "type": "function"
    },
    {
      "inputs": [],
      "name": "getTemplateCount",
      "outputs": [
        {
          "internalType": "uint32",
          "name": "count",
          "type": "uint32"
        }
      ],
      "stateMutability": "pure",
      "type": "function"
    },
    {
      "inputs": [
        {
          "internalType": "uint256",
          "name": "tocId",
          "type": "uint256"
        }
      ],
      "name": "getTocDetails",
      "outputs": [
        {
          "internalType": "uint32",
          "name": "templateId",
          "type": "uint32"
        },
        {
          "internalType": "bytes",
          "name": "creationPayload",
          "type": "bytes"
        }
      ],
      "stateMutability": "view",
      "type": "function"
    },
    {
      "inputs": [
        {
          "internalType": "uint256",
          "name": "tocId",
          "type": "uint256"
        }
      ],
      "name": "getTocQuestion",
      "outputs": [
        {
          "internalType": "string",
          "name": "question",
          "type": "string"
        }
      ],
      "stateMutability": "view",
      "type": "function"
    },
    {
      "inputs": [
        {
          "internalType": "uint256",
          "name": "tocId",
          "type": "uint256"
        }
      ],
      "name": "isTocManaged",
      "outputs": [
        {
          "internalType": "bool",
          "name": "",
          "type": "bool"
        }
      ],
      "stateMutability": "view",
      "type": "function"
    },
    {
      "inputs": [
        {
          "internalType": "uint32",
          "name": "templateId",
          "type": "uint32"
        }
      ],
      "name": "isValidTemplate",
      "outputs": [
        {
          "internalType": "bool",
          "name": "",
          "type": "bool"
        }
      ],
      "stateMutability": "pure",
      "type": "function"
    },
    {
      "inputs": [
        {
          "internalType": "uint256",
          "name": "tocId",
          "type": "uint256"
        },
        {
          "internalType": "uint32",
          "name": "templateId",
          "type": "uint32"
        },
        {
          "internalType": "bytes",
          "name": "payload",
          "type": "bytes"
        },
        {
          "internalType": "address",
          "name": "",
          "type": "address"
        }
      ],
      "name": "onTocCreated",
      "outputs": [
        {
          "internalType": "enum TOCState",
          "name": "initialState",
          "type": "uint8"
        }
      ],
      "stateMutability": "nonpayable",
      "type": "function"
    },
    {
      "inputs": [],
      "name": "pyth",
      "outputs": [
        {
          "internalType": "contract IPyth",
          "name": "",
          "type": "address"
        }
      ],
      "stateMutability": "view",
      "type": "function"
    },
    {
      "inputs": [],
      "name": "registry",
      "outputs": [
        {
          "internalType": "contract ITruthEngine",
          "name": "",
          "type": "address"
        }
      ],
      "stateMutability": "view",
      "type": "function"
    },
    {
      "inputs": [
        {
          "internalType": "uint256",
          "name": "tocId",
          "type": "uint256"
        },
        {
          "internalType": "address",
          "name": "",
          "type": "address"
        },
        {
          "internalType": "bytes",
          "name": "pythUpdateData",
          "type": "bytes"
        }
      ],
      "name": "resolveToc",
      "outputs": [
        {
          "internalType": "bytes",
          "name": "result",
          "type": "bytes"
        }
      ],
      "stateMutability": "nonpayable",
      "type": "function"
    },
    {
      "stateMutability": "payable",
      "type": "receive"
    }
  ],
  "bytecode": "0x60c0346100a157601f611a5f38819003918201601f19168301916001600160401b038311848410176100a55780849260409485528339810103126100a157610052602061004b836100b9565b92016100b9565b6001600160a01b039182166080521660a05260405161199190816100ce82396080518181816101030152818161145c01526117f7015260a0518181816103c2015281816105b401526106780152f35b5f80fd5b634e487b7160e01b5f52604160045260245ffd5b51906001600160a01b03821682036100a15756fe608080604052600436101561001c575b50361561001a575f80fd5b005b5f3560e01c9081631dd7be4414610ae9575080632b40233214610a2e5780635016959a146101515780635d48c503146106275780635d4efbe71461060857806373c515d9146105e35780637b1039991461059f5780637fbfe2ae146105455780637ff2fb7714610519578063862985c8146104fe5780638f20947c14610382578063a0c2e229146102fc578063c7af940e14610277578063cc9144a614610187578063d803d6701461016c578063df41b9d114610151578063e1068eaf146101365763f98d06f0146100ee575f61000f565b34610132575f366003190112610132576040517f00000000000000000000000000000000000000000000000000000000000000006001600160a01b03168152602090f35b5f80fd5b34610132575f36600319011261013257602060405160018152f35b34610132575f36600319011261013257602060405160038152f35b34610132575f36600319011261013257602060405160058152f35b3461013257602036600319011261013257600435805f525f60205263ffffffff60405f205416905f52600160205260405f209060405191825f8254926101cc84610be8565b80845293600181169081156102555750600114610211575b506101f192500383610bc7565b61020d6040519283928352604060208401526040830190610b6d565b0390f35b90505f9291925260205f20905f915b8183106102395750509060206101f192820101856101e4565b6020919350806001915483858901015201910190918492610220565b9050602092506101f194915060ff191682840152151560051b820101856101e4565b3461013257602036600319011261013257610290610f52565b506004355f526003602052608060405f206040516102ad81610bac565b8154918282526001810154906060600260208501928460070b8452604086019460401c60070b8552015493019283526040519384525160070b60208401525160070b6040830152516060820152f35b3461013257602036600319011261013257610315610f52565b506004355f526002602052608060405f2060405161033281610bac565b8154918282526001810154906060600260208501928460070b845260ff604087019560401c1615158552015493019283526040519384525160070b60208401525115156040830152516060820152f35b346101325760603660031901126101325760043561039e610b57565b506044356001600160401b038111610132576103be903690600401610b14565b90917f00000000000000000000000000000000000000000000000000000000000000006001600160a01b031633036104ef57805f525f60205263ffffffff60405f20541680155f1461044757509061020d9261041992611660565b604051901515602082015260208152610433604082610bc7565b604051918291602083526020830190610b6d565b600181036104bf57505f52600360205260405f20906002820154928342106104a85761020d9360019261047b92855461177e565b9101549060070b8160070b8112159182610497575b5050610419565b60401c60070b121590508280610490565b83630a476e4560e31b5f526004524260245260445ffd5b9092906002036104dc57906104d79161020d93611401565b610419565b826376deb76160e11b5f5260045260245ffd5b6310f5403960e31b5f5260045ffd5b34610132575f36600319011261013257602060405160028152f35b34610132576020366003190112610132576020600363ffffffff61053b610b01565b1610604051908152f35b3461013257602036600319011261013257600435805f525f60205263ffffffff60405f20541615801590610581575b6020906040519015158152f35b505f526001602052602061059860405f2054610be8565b1515610574565b34610132575f366003190112610132576040517f00000000000000000000000000000000000000000000000000000000000000006001600160a01b03168152602090f35b34610132576020366003190112610132576105fc610b01565b50602060405160018152f35b346101325760203660031901126101325761020d610433600435610c81565b346101325760803660031901126101325760043560243563ffffffff8116809103610132576044356001600160401b0381116101325761066b903690600401610b14565b9091610675610b41565b507f00000000000000000000000000000000000000000000000000000000000000006001600160a01b031633036104ef576003811015610a1c575f84815260208181526040808320805463ffffffff191685179055600190915290206001600160401b038311610a08576106e98154610be8565b601f81116109c3575b50825f601f821160011461095f575f91610954575b508360011b905f198560031b1c19161790555b806107d4575090604982106107c55761073b816002936107b5930190610f84565b9392956040519661074b88610bac565b8752602087019260070b8352604087019115158252606087019485525f528460205260405f209551865560018601915160070b6001600160401b0319835416906001600160401b031617825551151560ff60401b825491151560401b169060ff60401b1916179055565b519101555b602060405160038152f35b637c6953f960e01b5f5260045ffd5b60010361089957605081106107c557816080918101031261013257806107fe602060029301610f76565b61080a60408301610f76565b6040519461081786610bac565b83358652602086019260070b8352604086019160070b8252606080870194013584525f52600360205260405f209451855560018501915160070b6001600160401b0319835416906001600160401b03161782555181549060401b67ffffffffffffffff60401b169067ffffffffffffffff60401b1916179055519101556107ba565b90604982106107c5576108b481600393610938930190610f84565b92939190604051946108c586610b91565b8552602085019160070b82526040850190151581526060850193845260808501965f88525f52600460205260405f209451855560018501915160070b6001600160401b0319835416906001600160401b031617825551151560ff60401b825491151560401b169060ff60401b1916179055565b516002820155019051151560ff801983541691161790556107ba565b905084013586610707565b5f8381526020812092508590601f198216905b8181106109a857501061098f575b5050600183811b01905561071a565b8501355f19600386901b60f8161c191690558580610980565b88840135855560019094019360209384019388935001610972565b815f5260205f20601f850160051c810191602086106109fe575b601f0160051c01905b8181106109f357506106f2565b5f81556001016109e6565b90915081906109dd565b634e487b7160e01b5f52604160045260245ffd5b63ae7bea2d60e01b5f5260045260245ffd5b34610132576020366003190112610132575f6080604051610a4e81610b91565b82815282602082015282604082015282606082015201526004355f52600460205260a060405f20604051610a8181610b91565b8154918282526001810154602083018160070b815260ff604085019260401c1615158252608060ff600360028601549560608801968752015416940193151584526040519485525160070b602085015251151560408401525160608301525115156080820152f35b34610132575f36600319011261013257805f60209252f35b6004359063ffffffff8216820361013257565b9181601f84011215610132578235916001600160401b038311610132576020838186019501011161013257565b606435906001600160a01b038216820361013257565b602435906001600160a01b038216820361013257565b805180835260209291819084018484015e5f828201840152601f01601f1916010190565b60a081019081106001600160401b03821117610a0857604052565b608081019081106001600160401b03821117610a0857604052565b90601f801991011681019081106001600160401b03821117610a0857604052565b90600182811c92168015610c16575b6020831014610c0257565b634e487b7160e01b5f52602260045260245ffd5b91607f1691610bf7565b6001600160401b038111610a0857601f01601f191660200190565b60405190610c4a604083610bc7565b600582526462656c6f7760d81b6020830152565b60405190610c6d604083610bc7565b600582526461626f766560d81b6020830152565b805f525f60205263ffffffff60405f20541680155f14610d8257505f5260026020526020610d666001600e60405f208285818301549260ff8460401c165f14610d6957602e82610ce96002610ce1610cd7610c5e565b985b60070b610fb6565b9401546110c8565b926040519a8b976d02bb4b63610383934b1b2903132960951b828a0152805191829101858a015e870190600160fd1b84830152805192839101602f83015e0101906d01030ba103a34b6b2b9ba30b6b8160951b84830152805192839101600f83015e0101603f60f81b838201520301601e19810184520182610bc7565b90565b602e82610ce96002610ce1610d7c610c3b565b98610cd9565b60018103610e5357505f5260036020526020610d666001600e60405f206005858483015492603682610dca6002610ce1610dbe8960070b610fb6565b9860401c60070b610fb6565b926040519a8b977502bb4b63610383934b1b2903132903132ba3bb2b2b7160551b828a0152805191829101858a015e8701906401030b732160dd1b84830152805192839101603b83015e0101906d01030ba103a34b6b2b9ba30b6b8160951b84830152805192839101601383015e0101603f60f81b838201520301601e19810184520182610bc7565b600214610e845750604051610e69604082610bc7565b600b81526a556e6b6e6f776e20544f4360a81b602082015290565b5f5260046020526020610d666001600e60405f208285818301549260ff8460401c165f14610f3f57603182610ebf6002610ce1610cd7610c5e565b926040519a8b977002bb4b63610383934b1b2903932b0b1b41607d1b828a0152805191829101858a015e870190600160fd1b84830152805192839101603283015e0101906d010313c903a34b6b2b9ba30b6b8160951b84830152805192839101600f83015e0101603f60f81b838201520301601e19810184520182610bc7565b603182610ebf6002610ce1610d7c610c3b565b60405190610f5f82610bac565b5f6060838281528260208201528260408201520152565b35908160070b820361013257565b919082608091031261013257813591610f9f60208201610f76565b916040820135801515810361013257916060013590565b8060070b905f8212610fd557610d6691506001600160401b03166116c5565b50677fffffffffffffff19811461103057610d6660216110016020935f036001600160401b03166116c5565b604051938491602d60f81b828401528051918291018484015e81015f838201520301601f198101835282610bc7565b634e487b7160e01b5f52601160045260245ffd5b60405190611053604083610bc7565b60018252600360fc1b6020830152565b5f1981146110305760010190565b9061107b82610c20565b6110886040519182610bc7565b8281528092611099601f1991610c20565b0190602036910137565b9081518110156110b4570160200190565b634e487b7160e01b5f52603260045260245ffd5b801561114757805f81805b61112f57506110e181611071565b925b6110ec57505090565b5f198101908111611030578091600a8106603001918260301161103057600a9260f81b6001600160f81b0319165f1a9061112690866110a3565b530490816110e3565b915061113c600a91611063565b9104808392916110d3565b50610d66611044565b6001600160401b038111610a085760051b60200190565b602081830312610132578035906001600160401b03821161013257019080601f830112156101325781359161119b83611150565b926111a96040519485610bc7565b80845260208085019160051b830101918383116101325760208101915b8383106111d557505050505090565b82356001600160401b03811161013257820185603f820112156101325760208101359161120183610c20565b61120e6040519182610bc7565b8381526040838501018810610132575f6020858196604083970183860137830101528152019201916111c6565b8051156110b45760200190565b9080602083519182815201916020808360051b8301019401925f915b83831061127357505050505090565b9091929394602080611291600193601f198682030187528951610b6d565b97019301930191939290611264565b9190826080910312610132576040516112b881610bac565b809280518060070b810361013257825260208101516001600160401b038116810361013257602083015260408101518060030b8103610132576040830152606090810151910152565b602081830312610132578051906001600160401b038211610132570181601f820112156101325780519061133482611150565b926113426040519485610bc7565b828452602061012081860194028301019181831161013257602001925b82841061136d575050505090565b61012084830312610132576040519060608201908282106001600160401b03831117610a085761012092602092604052865181526113ad858489016112a0565b838201526113be8560a089016112a0565b604082015281520193019261135f565b90602080835192838152019201905f5b8181106113eb5750505090565b82518452602093840193909201916001016113de565b9061141a915f52600460205260405f2092810190611167565b90604080519261142a8285610bc7565b60018452601f19820136602086013782546114448561123b565b52815163d47eed4560e01b81526020600482018190527f00000000000000000000000000000000000000000000000000000000000000006001600160a01b031695919081806114966024820187611248565b0381895afa908115611656575f91611620575b50906114fa956114e85f9360028801956001600160401b0387541688519a8b9687958694634716e9c560e01b8652608060048701526084860190611248565b848103600319016024860152906113ce565b90876044840152606483015203925af1938415611616575f946115f2575b509260018301905f5b81518110156115c05781518110156110b4576020808260051b8401015101515160070b83549060ff82871c168080916115b3575b1561157657505050505050506003915001600160ff19825416179055600190565b1591826115a5575b505061158c57600101611521565b505050506003915001600160ff19825416179055600190565b60070b121590505f8061157e565b508260070b821215611555565b5050505091905491824210156115e75782630a476e4560e31b5f526004524260245260445ffd5b6003015460ff169150565b61160f9194503d805f833e6116078183610bc7565b810190611301565b925f611518565b82513d5f823e3d90fd5b9190506020823d60201161164e575b8161163c60209383610bc7565b810103126101325790516114fa6114a9565b3d915061162f565b84513d5f823e3d90fd5b5f52600260205260405f20916002830154918242106116ae579161168891600193855461177e565b91015460ff8160401c165f146116a35760070b9060070b1390565b60070b9060070b1290565b82630a476e4560e31b5f526004524260245260445ffd5b6001600160401b03811615611147575f916001600160401b03825b1692831561170257600a6116fb6001600160401b0392611063565b94046116e0565b9250906001600160401b0361171684611071565b915b16928315611779575f1981019081116110305780936001600160401b03600a820616603001906001600160401b038211611030576001600160401b0392600a9260f81b6001600160f81b0319165f1a9061177290866110a3565b5304611718565b509150565b919061178c91810190611167565b906005831115611955576004198301838111611030576001600160401b03165b60058401809411611030576040938451926117c78685610bc7565b60018452601f1986013660208601376117df8461123b565b52845163d47eed4560e01b81526020600482018190527f00000000000000000000000000000000000000000000000000000000000000006001600160a01b0316939192908380611832602482018a611248565b0381875afa92831561194b575f9361190d575b509161189295611880926001600160401b035f979695818b519a8b998a988997634716e9c560e01b8952608060048a01526084890190611248565b878103600319016024890152906113ce565b9316604485015216606483015203925af191821561190457505f916118ea575b508051156118db576118c560209161123b565b5101515f815160070b13156118db575160070b90565b63f45e167b60e01b5f5260045ffd5b6118fe91503d805f833e6116078183610bc7565b5f6118b2565b513d5f823e3d90fd5b91949392506020823d602011611943575b8161192b60209383610bc7565b81010312610132579051929391929190611892611845565b3d915061191e565b87513d5f823e3d90fd5b5f6117ac56fea2646970667358221220b9df99541d33d51b4390eb0bba1b5de8b367d659e64cb94615b50c2d127acd8564736f6c634300081d0033",
  "linkReferences": {},
  "deployedLinkReferences": {},
  "immutableReferences": {
    "16196": [
      {
        "length": 32,
        "start": 259
      },
      {
        "length": 32,
        "start": 5212
      },
      {
        "length": 32,
        "start": 6135
      }
    ],
    "16199": [
      {
        "length": 32,
        "start": 962
      },
      {
        "length": 32,
        "start": 1460
      },
      {
        "length": 32,
        "start": 1656
      }
    ]
  },
  "inputSourceName": "project/contracts/resolvers/PythPriceResolver.sol",
  "buildInfoId": "solc-0_8_29-d52a32f795c814f269e8229cee8d3b684800d7d9"
}