{
  "_format": "hh3-artifact-1",
  "contractName": "TruthEngine",
  "sourceName": "contracts/TruthEngine/TruthEngine.sol",
  "abi": [
    {
      "inputs": [],
      "stateMutability": "nonpayable",
      "type": "constructor"
    },
    {
      "inputs": [],
      "name": "AlreadyExists",
      "type": "error"
    },
    {
      "inputs": [],
      "name": "AlreadyRegistered",
      "type": "error"
    },
    {
      "inputs": [],
      "name": "Insufficient",
      "type": "error"
    },
    {
      "inputs": [],
      "name": "InvalidAddress",
      "type": "error"
    },
    {
      "inputs": [],
      "name": "InvalidBond",
      "type": "error"
    },
    {
      "inputs": [],
      "name": "InvalidState",
      "type": "error"
    },
    {
      "inputs": [],
      "name": "InvalidTemplateId",
      "type": "error"
    },
    {
      "inputs": [],
      "name": "NoCorrectedAnswer",
      "type": "error"
    },
    {
      "inputs": [],
      "name": "NoFeesToWithdraw",
      "type": "error"
    },
    {
      "inputs": [],
      "name": "NotContract",
      "type": "error"
    },
    {
      "inputs": [],
      "name": "NotFinalized",
      "type": "error"
    },
    {
      "inputs": [],
      "name": "NotReady",
      "type": "error"
    },
    {
      "inputs": [],
      "name": "NotRegistered",
      "type": "error"
    },
    {
      "inputs": [
        {
          "internalType": "address",
          "name": "owner",
          "type": "address"
        }
      ],
      "name": "OwnableInvalidOwner",
      "type": "error"
    },
    {
      "inputs": [
        {
          "internalType": "address",
          "name": "account",
          "type": "address"
        }
      ],
      "name": "OwnableUnauthorizedAccount",
      "type": "error"
    },
    {
      "inputs": [],
      "name": "ReentrancyGuardReentrantCall",
      "type": "error"
    },
    {
      "inputs": [
        {
          "internalType": "address",
          "name": "token",
          "type": "address"
        }
      ],
      "name": "SafeERC20FailedOperation",
      "type": "error"
    },
    {
      "inputs": [],
      "name": "TransferFailed",
      "type": "error"
    },
    {
      "inputs": [],
      "name": "TreasuryNotSet",
      "type": "error"
    },
    {
      "inputs": [],
      "name": "TruthKeeperRejected",
      "type": "error"
    },
    {
      "inputs": [],
      "name": "Unauthorized",
      "type": "error"
    },
    {
      "inputs": [],
      "name": "WindowNotReady",
      "type": "error"
    },
    {
      "inputs": [],
      "name": "WindowPassed",
      "type": "error"
    },
    {
      "inputs": [],
      "name": "WindowTooLong",
      "type": "error"
    },
    {
      "anonymous": false,
      "inputs": [
        {
          "indexed": true,
          "internalType": "enum BondType",
          "name": "bondType",
          "type": "uint8"
        },
        {
          "indexed": true,
          "internalType": "address",
          "name": "token",
          "type": "address"
        },
        {
          "indexed": false,
          "internalType": "uint256",
          "name": "minAmount",
          "type": "uint256"
        }
      ],
      "name": "AcceptableBondAdded",
      "type": "event"
    },
    {
      "anonymous": false,
      "inputs": [
        {
          "indexed": true,
          "internalType": "uint256",
          "name": "tocId",
          "type": "uint256"
        },
        {
          "indexed": true,
          "internalType": "address",
          "name": "from",
          "type": "address"
        },
        {
          "indexed": false,
          "internalType": "address",
          "name": "token",
          "type": "address"
        },
        {
          "indexed": false,
          "internalType": "uint256",
          "name": "amount",
          "type": "uint256"
        }
      ],
      "name": "BondSlashed",
      "type": "event"
    },
    {
      "anonymous": false,
      "inputs": [
        {
          "indexed": true,
          "internalType": "uint256",
          "name": "tocId",
          "type": "uint256"
        },
        {
          "indexed": false,
          "internalType": "uint256",
          "name": "protocolFee",
          "type": "uint256"
        },
        {
          "indexed": false,
          "internalType": "uint256",
          "name": "tkFee",
          "type": "uint256"
        },
        {
          "indexed": false,
          "internalType": "uint256",
          "name": "resolverFee",
          "type": "uint256"
        }
      ],
      "name": "CreationFeesCollected",
      "type": "event"
    },
    {
      "anonymous": false,
      "inputs": [
        {
          "indexed": true,
          "internalType": "uint256",
          "name": "tocId",
          "type": "uint256"
        },
        {
          "indexed": true,
          "internalType": "address",
          "name": "previousCreator",
          "type": "address"
        },
        {
          "indexed": true,
          "internalType": "address",
          "name": "newCreator",
          "type": "address"
        }
      ],
      "name": "CreatorTransferred",
      "type": "event"
    },
    {
      "anonymous": false,
      "inputs": [
        {
          "indexed": false,
          "internalType": "uint256",
          "name": "oldDuration",
          "type": "uint256"
        },
        {
          "indexed": false,
          "internalType": "uint256",
          "name": "newDuration",
          "type": "uint256"
        }
      ],
      "name": "DefaultDisputeWindowChanged",
      "type": "event"
    },
    {
      "anonymous": false,
      "inputs": [
        {
          "indexed": true,
          "internalType": "uint256",
          "name": "tocId",
          "type": "uint256"
        },
        {
          "indexed": true,
          "internalType": "address",
          "name": "disputer",
          "type": "address"
        },
        {
          "indexed": false,
          "internalType": "address",
          "name": "token",
          "type": "address"
        },
        {
          "indexed": false,
          "internalType": "uint256",
          "name": "amount",
          "type": "uint256"
        }
      ],
      "name": "DisputeBondDeposited",
      "type": "event"
    },
    {
      "anonymous": false,
      "inputs": [
        {
          "indexed": true,
          "internalType": "uint256",
          "name": "tocId",
          "type": "uint256"
        },
        {
          "indexed": true,
          "internalType": "address",
          "name": "to",
          "type": "address"
        },
        {
          "indexed": false,
          "internalType": "address",
          "name": "token",
          "type": "address"
        },
        {
          "indexed": false,
          "internalType": "uint256",
          "name": "amount",
          "type": "uint256"
        }
      ],
      "name": "DisputeBondReturned",
      "type": "event"
    },
    {
      "anonymous": false,
      "inputs": [
        {
          "indexed": true,
          "internalType": "uint256",
          "name": "tocId",
          "type": "uint256"
        },
        {
          "indexed": false,
          "internalType": "enum DisputeResolution",
          "name": "resolution",
          "type": "uint8"
        },
        {
          "indexed": true,
          "internalType": "address",
          "name": "admin",
          "type": "address"
        }
      ],
      "name": "DisputeResolved",
      "type": "event"
    },
    {
      "anonymous": false,
      "inputs": [
        {
          "indexed": true,
          "internalType": "uint256",
          "name": "tocId",
          "type": "uint256"
        },
        {
          "indexed": true,
          "internalType": "address",
          "name": "challenger",
          "type": "address"
        },
        {
          "indexed": false,
          "internalType": "address",
          "name": "token",
          "type": "address"
        },
        {
          "indexed": false,
          "internalType": "uint256",
          "name": "amount",
          "type": "uint256"
        }
      ],
      "name": "EscalationBondDeposited",
      "type": "event"
    },
    {
      "anonymous": false,
      "inputs": [
        {
          "indexed": true,
          "internalType": "uint256",
          "name": "tocId",
          "type": "uint256"
        },
        {
          "indexed": true,
          "internalType": "address",
          "name": "to",
          "type": "address"
        },
        {
          "indexed": false,
          "internalType": "address",
          "name": "token",
          "type": "address"
        },
        {
          "indexed": false,
          "internalType": "uint256",
          "name": "amount",
          "type": "uint256"
        }
      ],
      "name": "EscalationBondReturned",
      "type": "event"
    },
    {
      "anonymous": false,
      "inputs": [
        {
          "indexed": true,
          "internalType": "uint256",
          "name": "tocId",
          "type": "uint256"
        },
        {
          "indexed": false,
          "internalType": "enum DisputeResolution",
          "name": "resolution",
          "type": "uint8"
        },
        {
          "indexed": true,
          "internalType": "address",
          "name": "admin",
          "type": "address"
        },
        {
          "indexed": false,
          "internalType": "bytes",
          "name": "correctedResult",
          "type": "bytes"
        }
      ],
      "name": "EscalationResolved",
      "type": "event"
    },
    {
      "anonymous": false,
      "inputs": [
        {
          "indexed": true,
          "internalType": "address",
          "name": "previousOwner",
          "type": "address"
        },
        {
          "indexed": true,
          "internalType": "address",
          "name": "newOwner",
          "type": "address"
        }
      ],
      "name": "OwnershipTransferred",
      "type": "event"
    },
    {
      "anonymous": false,
      "inputs": [
        {
          "indexed": true,
          "internalType": "uint256",
          "name": "tocId",
          "type": "uint256"
        },
        {
          "indexed": true,
          "internalType": "address",
          "name": "disputer",
          "type": "address"
        },
        {
          "indexed": false,
          "internalType": "string",
          "name": "reason",
          "type": "string"
        },
        {
          "indexed": false,
          "internalType": "string",
          "name": "evidenceURI",
          "type": "string"
        },
        {
          "indexed": false,
          "internalType": "bytes",
          "name": "proposedResult",
          "type": "bytes"
        }
      ],
      "name": "PostResolutionDisputeFiled",
      "type": "event"
    },
    {
      "anonymous": false,
      "inputs": [
        {
          "indexed": true,
          "internalType": "uint256",
          "name": "tocId",
          "type": "uint256"
        },
        {
          "indexed": false,
          "internalType": "bool",
          "name": "resultCorrected",
          "type": "bool"
        }
      ],
      "name": "PostResolutionDisputeResolved",
      "type": "event"
    },
    {
      "anonymous": false,
      "inputs": [
        {
          "indexed": false,
          "internalType": "uint256",
          "name": "minimum",
          "type": "uint256"
        },
        {
          "indexed": false,
          "internalType": "uint256",
          "name": "standard",
          "type": "uint256"
        }
      ],
      "name": "ProtocolFeeUpdated",
      "type": "event"
    },
    {
      "anonymous": false,
      "inputs": [
        {
          "indexed": true,
          "internalType": "address",
          "name": "treasury",
          "type": "address"
        },
        {
          "indexed": false,
          "internalType": "uint256",
          "name": "creationFees",
          "type": "uint256"
        },
        {
          "indexed": false,
          "internalType": "uint256",
          "name": "slashingFees",
          "type": "uint256"
        }
      ],
      "name": "ProtocolFeesWithdrawn",
      "type": "event"
    },
    {
      "anonymous": false,
      "inputs": [
        {
          "indexed": true,
          "internalType": "uint256",
          "name": "tocId",
          "type": "uint256"
        },
        {
          "indexed": true,
          "internalType": "address",
          "name": "proposer",
          "type": "address"
        },
        {
          "indexed": false,
          "internalType": "address",
          "name": "token",
          "type": "address"
        },
        {
          "indexed": false,
          "internalType": "uint256",
          "name": "amount",
          "type": "uint256"
        }
      ],
      "name": "ResolutionBondDeposited",
      "type": "event"
    },
    {
      "anonymous": false,
      "inputs": [
        {
          "indexed": true,
          "internalType": "uint256",
          "name": "tocId",
          "type": "uint256"
        },
        {
          "indexed": true,
          "internalType": "address",
          "name": "to",
          "type": "address"
        },
        {
          "indexed": false,
          "internalType": "address",
          "name": "token",
          "type": "address"
        },
        {
          "indexed": false,
          "internalType": "uint256",
          "name": "amount",
          "type": "uint256"
        }
      ],
      "name": "ResolutionBondReturned",
      "type": "event"
    },
    {
      "anonymous": false,
      "inputs": [
        {
          "indexed": true,
          "internalType": "address",
          "name": "resolver",
          "type": "address"
        },
        {
          "indexed": true,
          "internalType": "uint256",
          "name": "tocId",
          "type": "uint256"
        },
        {
          "indexed": false,
          "internalType": "uint256",
          "name": "amount",
          "type": "uint256"
        }
      ],
      "name": "ResolverFeeClaimed",
      "type": "event"
    },
    {
      "anonymous": false,
      "inputs": [
        {
          "indexed": true,
          "internalType": "address",
          "name": "resolver",
          "type": "address"
        },
        {
          "indexed": true,
          "internalType": "uint32",
          "name": "templateId",
          "type": "uint32"
        },
        {
          "indexed": false,
          "internalType": "uint256",
          "name": "amount",
          "type": "uint256"
        }
      ],
      "name": "ResolverFeeSet",
      "type": "event"
    },
    {
      "anonymous": false,
      "inputs": [
        {
          "indexed": true,
          "internalType": "address",
          "name": "resolver",
          "type": "address"
        },
        {
          "indexed": false,
          "internalType": "enum ResolverTrust",
          "name": "trust",
          "type": "uint8"
        },
        {
          "indexed": true,
          "internalType": "address",
          "name": "registeredBy",
          "type": "address"
        }
      ],
      "name": "ResolverRegistered",
      "type": "event"
    },
    {
      "anonymous": false,
      "inputs": [
        {
          "indexed": true,
          "internalType": "address",
          "name": "resolver",
          "type": "address"
        },
        {
          "indexed": false,
          "internalType": "enum ResolverTrust",
          "name": "oldTrust",
          "type": "uint8"
        },
        {
          "indexed": false,
          "internalType": "enum ResolverTrust",
          "name": "newTrust",
          "type": "uint8"
        }
      ],
      "name": "ResolverTrustChanged",
      "type": "event"
    },
    {
      "anonymous": false,
      "inputs": [
        {
          "indexed": true,
          "internalType": "uint256",
          "name": "tocId",
          "type": "uint256"
        },
        {
          "indexed": false,
          "internalType": "uint256",
          "name": "protocolFee",
          "type": "uint256"
        },
        {
          "indexed": false,
          "internalType": "uint256",
          "name": "tkFee",
          "type": "uint256"
        }
      ],
      "name": "SlashingFeesCollected",
      "type": "event"
    },
    {
      "anonymous": false,
      "inputs": [
        {
          "indexed": true,
          "internalType": "address",
          "name": "tk",
          "type": "address"
        },
        {
          "indexed": false,
          "internalType": "uint256",
          "name": "amount",
          "type": "uint256"
        }
      ],
      "name": "TKFeesWithdrawn",
      "type": "event"
    },
    {
      "anonymous": false,
      "inputs": [
        {
          "indexed": true,
          "internalType": "enum AccountabilityTier",
          "name": "tier",
          "type": "uint8"
        },
        {
          "indexed": false,
          "internalType": "uint256",
          "name": "basisPoints",
          "type": "uint256"
        }
      ],
      "name": "TKShareUpdated",
      "type": "event"
    },
    {
      "anonymous": false,
      "inputs": [
        {
          "indexed": true,
          "internalType": "uint256",
          "name": "tocId",
          "type": "uint256"
        }
      ],
      "name": "TOCApproved",
      "type": "event"
    },
    {
      "anonymous": false,
      "inputs": [
        {
          "indexed": true,
          "internalType": "uint256",
          "name": "tocId",
          "type": "uint256"
        },
        {
          "indexed": false,
          "internalType": "string",
          "name": "reason",
          "type": "string"
        }
      ],
      "name": "TOCCancelled",
      "type": "event"
    },
    {
      "anonymous": false,
      "inputs": [
        {
          "indexed": true,
          "internalType": "uint256",
          "name": "tocId",
          "type": "uint256"
        },
        {
          "indexed": true,
          "internalType": "address",
          "name": "resolver",
          "type": "address"
        },
        {
          "indexed": true,
          "internalType": "address",
          "name": "creator",
          "type": "address"
        },
        {
          "indexed": false,
          "internalType": "enum ResolverTrust",
          "name": "trust",
          "type": "uint8"
        },
        {
          "indexed": false,
          "internalType": "uint32",
          "name": "templateId",
          "type": "uint32"
        },
        {
          "indexed": false,
          "internalType": "enum AnswerType",
          "name": "answerType",
          "type": "uint8"
        },
        {
          "indexed": false,
          "internalType": "enum TOCState",
          "name": "initialState",
          "type": "uint8"
        },
        {
          "indexed": false,
          "internalType": "address",
          "name": "truthKeeper",
          "type": "address"
        },
        {
          "indexed": false,
          "internalType": "enum AccountabilityTier",
          "name": "tier",
          "type": "uint8"
        },
        {
          "indexed": false,
          "internalType": "uint32",
          "name": "disputeWindow",
          "type": "uint32"
        },
        {
          "indexed": false,
          "internalType": "uint32",
          "name": "truthKeeperWindow",
          "type": "uint32"
        },
        {
          "indexed": false,
          "internalType": "uint32",
          "name": "escalationWindow",
          "type": "uint32"
        },
        {
          "indexed": false,
          "internalType": "uint32",
          "name": "postResolutionWindow",
          "type": "uint32"
        }
      ],
      "name": "TOCCreated",
      "type": "event"
    },
    {
      "anonymous": false,
      "inputs": [
        {
          "indexed": true,
          "internalType": "uint256",
          "name": "tocId",
          "type": "uint256"
        },
        {
          "indexed": true,
          "internalType": "address",
          "name": "disputer",
          "type": "address"
        },
        {
          "indexed": false,
          "internalType": "string",
          "name": "reason",
          "type": "string"
        },
        {
          "indexed": false,
          "internalType": "string",
          "name": "evidenceURI",
          "type": "string"
        }
      ],
      "name": "TOCDisputed",
      "type": "event"
    },
    {
      "anonymous": false,
      "inputs": [
        {
          "indexed": true,
          "internalType": "uint256",
          "name": "tocId",
          "type": "uint256"
        },
        {
          "indexed": false,
          "internalType": "enum AnswerType",
          "name": "answerType",
          "type": "uint8"
        }
      ],
      "name": "TOCFinalized",
      "type": "event"
    },
    {
      "anonymous": false,
      "inputs": [
        {
          "indexed": true,
          "internalType": "uint256",
          "name": "tocId",
          "type": "uint256"
        },
        {
          "indexed": false,
          "internalType": "string",
          "name": "reason",
          "type": "string"
        }
      ],
      "name": "TOCRejected",
      "type": "event"
    },
    {
      "anonymous": false,
      "inputs": [
        {
          "indexed": true,
          "internalType": "uint256",
          "name": "tocId",
          "type": "uint256"
        },
        {
          "indexed": true,
          "internalType": "address",
          "name": "proposer",
          "type": "address"
        },
        {
          "indexed": false,
          "internalType": "enum AnswerType",
          "name": "answerType",
          "type": "uint8"
        },
        {
          "indexed": false,
          "internalType": "uint256",
          "name": "disputeDeadline",
          "type": "uint256"
        }
      ],
      "name": "TOCResolutionProposed",
      "type": "event"
    },
    {
      "anonymous": false,
      "inputs": [
        {
          "indexed": true,
          "internalType": "uint256",
          "name": "tocId",
          "type": "uint256"
        },
        {
          "indexed": false,
          "internalType": "enum AnswerType",
          "name": "answerType",
          "type": "uint8"
        }
      ],
      "name": "TOCResolved",
      "type": "event"
    },
    {
      "anonymous": false,
      "inputs": [
        {
          "indexed": true,
          "internalType": "address",
          "name": "treasury",
          "type": "address"
        }
      ],
      "name": "TreasurySet",
      "type": "event"
    },
    {
      "anonymous": false,
      "inputs": [
        {
          "indexed": true,
          "internalType": "uint256",
          "name": "tocId",
          "type": "uint256"
        },
        {
          "indexed": true,
          "internalType": "address",
          "name": "tk",
          "type": "address"
        }
      ],
      "name": "TruthKeeperApproved",
      "type": "event"
    },
    {
      "anonymous": false,
      "inputs": [
        {
          "indexed": true,
          "internalType": "uint256",
          "name": "tocId",
          "type": "uint256"
        },
        {
          "indexed": true,
          "internalType": "address",
          "name": "challenger",
          "type": "address"
        },
        {
          "indexed": false,
          "internalType": "string",
          "name": "reason",
          "type": "string"
        },
        {
          "indexed": false,
          "internalType": "string",
          "name": "evidenceURI",
          "type": "string"
        },
        {
          "indexed": false,
          "internalType": "bytes",
          "name": "proposedResult",
          "type": "bytes"
        }
      ],
      "name": "TruthKeeperDecisionChallenged",
      "type": "event"
    },
    {
      "anonymous": false,
      "inputs": [
        {
          "indexed": true,
          "internalType": "uint256",
          "name": "tocId",
          "type": "uint256"
        },
        {
          "indexed": true,
          "internalType": "address",
          "name": "tk",
          "type": "address"
        },
        {
          "indexed": false,
          "internalType": "enum DisputeResolution",
          "name": "resolution",
          "type": "uint8"
        }
      ],
      "name": "TruthKeeperDisputeResolved",
      "type": "event"
    },
    {
      "anonymous": false,
      "inputs": [
        {
          "indexed": true,
          "internalType": "address",
          "name": "tk",
          "type": "address"
        }
      ],
      "name": "TruthKeeperRemovedFromWhitelist",
      "type": "event"
    },
    {
      "anonymous": false,
      "inputs": [
        {
          "indexed": true,
          "internalType": "uint256",
          "name": "tocId",
          "type": "uint256"
        },
        {
          "indexed": true,
          "internalType": "address",
          "name": "tk",
          "type": "address"
        }
      ],
      "name": "TruthKeeperSoftRejected",
      "type": "event"
    },
    {
      "anonymous": false,
      "inputs": [
        {
          "indexed": true,
          "internalType": "uint256",
          "name": "tocId",
          "type": "uint256"
        },
        {
          "indexed": true,
          "internalType": "address",
          "name": "tk",
          "type": "address"
        }
      ],
      "name": "TruthKeeperTimedOut",
      "type": "event"
    },
    {
      "anonymous": false,
      "inputs": [
        {
          "indexed": true,
          "internalType": "address",
          "name": "tk",
          "type": "address"
        }
      ],
      "name": "TruthKeeperWhitelisted",
      "type": "event"
    },
    {
      "inputs": [],
      "name": "MAX_WINDOW_RESOLVER",
      "outputs": [
        {
          "internalType": "uint256",
          "name": "",
          "type": "uint256"
        }
      ],
      "stateMutability": "view",
      "type": "function"
    },
    {
      "inputs": [],
      "name": "MAX_WINDOW_TRUSTED",
      "outputs": [
        {
          "internalType": "uint256",
          "name": "",
          "type": "uint256"
        }
      ],
      "stateMutability": "view",
      "type": "function"
    },
    {
      "inputs": [
        {
          "internalType": "enum BondType",
          "name": "bondType",
          "type": "uint8"
        },
        {
          "internalType": "address",
          "name": "token",
          "type": "address"
        },
        {
          "internalType": "uint256",
          "name": "minAmount",
          "type": "uint256"
        }
      ],
      "name": "addAcceptableBond",
      "outputs": [],
      "stateMutability": "nonpayable",
      "type": "function"
    },
    {
      "inputs": [
        {
          "internalType": "address",
          "name": "tk",
          "type": "address"
        }
      ],
      "name": "addWhitelistedTruthKeeper",
      "outputs": [],
      "stateMutability": "nonpayable",
      "type": "function"
    },
    {
      "inputs": [
        {
          "internalType": "uint256",
          "name": "tocId",
          "type": "uint256"
        }
      ],
      "name": "approveTOC",
      "outputs": [],
      "stateMutability": "nonpayable",
      "type": "function"
    },
    {
      "inputs": [
        {
          "internalType": "uint256",
          "name": "tocId",
          "type": "uint256"
        }
      ],
      "name": "canDispute",
      "outputs": [
        {
          "internalType": "bool",
          "name": "",
          "type": "bool"
        }
      ],
      "stateMutability": "view",
      "type": "function"
    },
    {
      "inputs": [
        {
          "internalType": "uint256",
          "name": "tocId",
          "type": "uint256"
        }
      ],
      "name": "canFinalize",
      "outputs": [
        {
          "internalType": "bool",
          "name": "",
          "type": "bool"
        }
      ],
      "stateMutability": "view",
      "type": "function"
    },
    {
      "inputs": [
        {
          "internalType": "uint256",
          "name": "tocId",
          "type": "uint256"
        },
        {
          "internalType": "address",
          "name": "bondToken",
          "type": "address"
        },
        {
          "internalType": "uint256",
          "name": "bondAmount",
          "type": "uint256"
        },
        {
          "internalType": "string",
          "name": "reason",
          "type": "string"
        },
        {
          "internalType": "string",
          "name": "evidenceURI",
          "type": "string"
        },
        {
          "internalType": "bytes",
          "name": "proposedResult",
          "type": "bytes"
        }
      ],
      "name": "challengeTruthKeeperDecision",
      "outputs": [],
      "stateMutability": "payable",
      "type": "function"
    },
    {
      "inputs": [
        {
          "internalType": "uint256",
          "name": "tocId",
          "type": "uint256"
        }
      ],
      "name": "claimResolverFee",
      "outputs": [],
      "stateMutability": "nonpayable",
      "type": "function"
    },
    {
      "inputs": [
        {
          "internalType": "uint256[]",
          "name": "tocIds",
          "type": "uint256[]"
        }
      ],
      "name": "claimResolverFees",
      "outputs": [],
      "stateMutability": "nonpayable",
      "type": "function"
    },
    {
      "inputs": [
        {
          "internalType": "address",
          "name": "resolver",
          "type": "address"
        },
        {
          "internalType": "uint32",
          "name": "templateId",
          "type": "uint32"
        },
        {
          "internalType": "bytes",
          "name": "payload",
          "type": "bytes"
        },
        {
          "internalType": "uint32",
          "name": "disputeWindow",
          "type": "uint32"
        },
        {
          "internalType": "uint32",
          "name": "truthKeeperWindow",
          "type": "uint32"
        },
        {
          "internalType": "uint32",
          "name": "escalationWindow",
          "type": "uint32"
        },
        {
          "internalType": "uint32",
          "name": "postResolutionWindow",
          "type": "uint32"
        },
        {
          "internalType": "address",
          "name": "truthKeeper",
          "type": "address"
        }
      ],
      "name": "createTOC",
      "outputs": [
        {
          "internalType": "uint256",
          "name": "tocId",
          "type": "uint256"
        }
      ],
      "stateMutability": "payable",
      "type": "function"
    },
    {
      "inputs": [],
      "name": "defaultDisputeWindow",
      "outputs": [
        {
          "internalType": "uint256",
          "name": "",
          "type": "uint256"
        }
      ],
      "stateMutability": "view",
      "type": "function"
    },
    {
      "inputs": [
        {
          "internalType": "uint256",
          "name": "tocId",
          "type": "uint256"
        },
        {
          "internalType": "address",
          "name": "bondToken",
          "type": "address"
        },
        {
          "internalType": "uint256",
          "name": "bondAmount",
          "type": "uint256"
        },
        {
          "internalType": "string",
          "name": "reason",
          "type": "string"
        },
        {
          "internalType": "string",
          "name": "evidenceURI",
          "type": "string"
        },
        {
          "internalType": "bytes",
          "name": "proposedResult",
          "type": "bytes"
        }
      ],
      "name": "dispute",
      "outputs": [],
      "stateMutability": "payable",
      "type": "function"
    },
    {
      "inputs": [
        {
          "internalType": "uint256",
          "name": "tocId",
          "type": "uint256"
        }
      ],
      "name": "escalateTruthKeeperTimeout",
      "outputs": [],
      "stateMutability": "nonpayable",
      "type": "function"
    },
    {
      "inputs": [
        {
          "internalType": "uint256",
          "name": "tocId",
          "type": "uint256"
        }
      ],
      "name": "finalizeAfterTruthKeeper",
      "outputs": [],
      "stateMutability": "nonpayable",
      "type": "function"
    },
    {
      "inputs": [
        {
          "internalType": "uint256",
          "name": "tocId",
          "type": "uint256"
        }
      ],
      "name": "finalizeTOC",
      "outputs": [],
      "stateMutability": "nonpayable",
      "type": "function"
    },
    {
      "inputs": [
        {
          "internalType": "address",
          "name": "resolver",
          "type": "address"
        },
        {
          "internalType": "uint32",
          "name": "templateId",
          "type": "uint32"
        }
      ],
      "name": "getCreationFee",
      "outputs": [
        {
          "internalType": "uint256",
          "name": "protocolFee",
          "type": "uint256"
        },
        {
          "internalType": "uint256",
          "name": "resolverFee",
          "type": "uint256"
        },
        {
          "internalType": "uint256",
          "name": "total",
          "type": "uint256"
        }
      ],
      "stateMutability": "view",
      "type": "function"
    },
    {
      "inputs": [
        {
          "internalType": "uint256",
          "name": "tocId",
          "type": "uint256"
        }
      ],
      "name": "getDisputeInfo",
      "outputs": [
        {
          "components": [
            {
              "internalType": "enum DisputePhase",
              "name": "phase",
              "type": "uint8"
            },
            {
              "internalType": "address",
              "name": "disputer",
              "type": "address"
            },
            {
              "internalType": "address",
              "name": "bondToken",
              "type": "address"
            },
            {
              "internalType": "uint256",
              "name": "bondAmount",
              "type": "uint256"
            },
            {
              "internalType": "string",
              "name": "reason",
              "type": "string"
            },
            {
              "internalType": "string",
              "name": "evidenceURI",
              "type": "string"
            },
            {
              "internalType": "uint256",
              "name": "filedAt",
              "type": "uint256"
            },
            {
              "internalType": "uint256",
              "name": "resolvedAt",
              "type": "uint256"
            },
            {
              "internalType": "bool",
              "name": "resultCorrected",
              "type": "bool"
            },
            {
              "internalType": "bytes",
              "name": "proposedResult",
              "type": "bytes"
            },
            {
              "internalType": "enum DisputeResolution",
              "name": "tkDecision",
              "type": "uint8"
            },
            {
              "internalType": "uint256",
              "name": "tkDecidedAt",
              "type": "uint256"
            }
          ],
          "internalType": "struct DisputeInfo",
          "name": "info",
          "type": "tuple"
        }
      ],
      "stateMutability": "view",
      "type": "function"
    },
    {
      "inputs": [
        {
          "internalType": "uint256",
          "name": "tocId",
          "type": "uint256"
        }
      ],
      "name": "getEscalationInfo",
      "outputs": [
        {
          "components": [
            {
              "internalType": "address",
              "name": "challenger",
              "type": "address"
            },
            {
              "internalType": "address",
              "name": "bondToken",
              "type": "address"
            },
            {
              "internalType": "uint256",
              "name": "bondAmount",
              "type": "uint256"
            },
            {
              "internalType": "string",
              "name": "reason",
              "type": "string"
            },
            {
              "internalType": "string",
              "name": "evidenceURI",
              "type": "string"
            },
            {
              "internalType": "uint256",
              "name": "filedAt",
              "type": "uint256"
            },
            {
              "internalType": "uint256",
              "name": "resolvedAt",
              "type": "uint256"
            },
            {
              "internalType": "bytes",
              "name": "proposedResult",
              "type": "bytes"
            }
          ],
          "internalType": "struct EscalationInfo",
          "name": "",
          "type": "tuple"
        }
      ],
      "stateMutability": "view",
      "type": "function"
    },
    {
      "inputs": [
        {
          "internalType": "uint256",
          "name": "tocId",
          "type": "uint256"
        }
      ],
      "name": "getExtensiveResult",
      "outputs": [
        {
          "components": [
            {
              "internalType": "enum AnswerType",
              "name": "answerType",
              "type": "uint8"
            },
            {
              "internalType": "bytes",
              "name": "result",
              "type": "bytes"
            },
            {
              "internalType": "bool",
              "name": "isFinalized",
              "type": "bool"
            },
            {
              "internalType": "bool",
              "name": "wasDisputed",
              "type": "bool"
            },
            {
              "internalType": "bool",
              "name": "wasCorrected",
              "type": "bool"
            },
            {
              "internalType": "uint256",
              "name": "resolvedAt",
              "type": "uint256"
            },
            {
              "internalType": "enum AccountabilityTier",
              "name": "tier",
              "type": "uint8"
            },
            {
              "internalType": "enum ResolverTrust",
              "name": "resolverTrust",
              "type": "uint8"
            }
          ],
          "internalType": "struct ExtensiveResult",
          "name": "result",
          "type": "tuple"
        }
      ],
      "stateMutability": "view",
      "type": "function"
    },
    {
      "inputs": [
        {
          "internalType": "uint256",
          "name": "tocId",
          "type": "uint256"
        }
      ],
      "name": "getExtensiveResultStrict",
      "outputs": [
        {
          "components": [
            {
              "internalType": "enum AnswerType",
              "name": "answerType",
              "type": "uint8"
            },
            {
              "internalType": "bytes",
              "name": "result",
              "type": "bytes"
            },
            {
              "internalType": "bool",
              "name": "isFinalized",
              "type": "bool"
            },
            {
              "internalType": "bool",
              "name": "wasDisputed",
              "type": "bool"
            },
            {
              "internalType": "bool",
              "name": "wasCorrected",
              "type": "bool"
            },
            {
              "internalType": "uint256",
              "name": "resolvedAt",
              "type": "uint256"
            },
            {
              "internalType": "enum AccountabilityTier",
              "name": "tier",
              "type": "uint8"
            },
            {
              "internalType": "enum ResolverTrust",
              "name": "resolverTrust",
              "type": "uint8"
            }
          ],
          "internalType": "struct ExtensiveResult",
          "name": "result",
          "type": "tuple"
        }
      ],
      "stateMutability": "view",
      "type": "function"
    },
    {
      "inputs": [
        {
          "internalType": "uint256",
          "name": "tocId",
          "type": "uint256"
        }
      ],
      "name": "getOriginalResult",
      "outputs": [
        {
          "internalType": "bytes",
          "name": "result",
          "type": "bytes"
        }
      ],
      "stateMutability": "view",
      "type": "function"
    },
    {
      "inputs": [
        {
          "internalType": "enum FeeCategory",
          "name": "category",
          "type": "uint8"
        }
      ],
      "name": "getProtocolBalance",
      "outputs": [
        {
          "internalType": "uint256",
          "name": "",
          "type": "uint256"
        }
      ],
      "stateMutability": "view",
      "type": "function"
    },
    {
      "inputs": [],
      "name": "getProtocolFees",
      "outputs": [
        {
          "internalType": "uint256",
          "name": "minimum",
          "type": "uint256"
        },
        {
          "internalType": "uint256",
          "name": "standard",
          "type": "uint256"
        }
      ],
      "stateMutability": "view",
      "type": "function"
    },
    {
      "inputs": [],
      "name": "getRegisteredResolvers",
      "outputs": [
        {
          "internalType": "address[]",
          "name": "",
          "type": "address[]"
        }
      ],
      "stateMutability": "view",
      "type": "function"
    },
    {
      "inputs": [
        {
          "internalType": "uint256",
          "name": "tocId",
          "type": "uint256"
        }
      ],
      "name": "getResolutionInfo",
      "outputs": [
        {
          "components": [
            {
              "internalType": "address",
              "name": "proposer",
              "type": "address"
            },
            {
              "internalType": "address",
              "name": "bondToken",
              "type": "address"
            },
            {
              "internalType": "uint256",
              "name": "bondAmount",
              "type": "uint256"
            },
            {
              "internalType": "bytes",
              "name": "proposedResult",
              "type": "bytes"
            }
          ],
          "internalType": "struct ResolutionInfo",
          "name": "info",
          "type": "tuple"
        }
      ],
      "stateMutability": "view",
      "type": "function"
    },
    {
      "inputs": [
        {
          "internalType": "address",
          "name": "resolver",
          "type": "address"
        }
      ],
      "name": "getResolverConfig",
      "outputs": [
        {
          "components": [
            {
              "internalType": "enum ResolverTrust",
              "name": "trust",
              "type": "uint8"
            },
            {
              "internalType": "uint256",
              "name": "registeredAt",
              "type": "uint256"
            },
            {
              "internalType": "address",
              "name": "registeredBy",
              "type": "address"
            }
          ],
          "internalType": "struct ResolverConfig",
          "name": "",
          "type": "tuple"
        }
      ],
      "stateMutability": "view",
      "type": "function"
    },
    {
      "inputs": [],
      "name": "getResolverCount",
      "outputs": [
        {
          "internalType": "uint256",
          "name": "",
          "type": "uint256"
        }
      ],
      "stateMutability": "view",
      "type": "function"
    },
    {
      "inputs": [
        {
          "internalType": "address",
          "name": "resolver",
          "type": "address"
        },
        {
          "internalType": "uint32",
          "name": "templateId",
          "type": "uint32"
        }
      ],
      "name": "getResolverFee",
      "outputs": [
        {
          "internalType": "uint256",
          "name": "",
          "type": "uint256"
        }
      ],
      "stateMutability": "view",
      "type": "function"
    },
    {
      "inputs": [
        {
          "internalType": "uint256",
          "name": "tocId",
          "type": "uint256"
        }
      ],
      "name": "getResolverFeeByToc",
      "outputs": [
        {
          "internalType": "uint256",
          "name": "",
          "type": "uint256"
        }
      ],
      "stateMutability": "view",
      "type": "function"
    },
    {
      "inputs": [
        {
          "internalType": "address",
          "name": "resolver",
          "type": "address"
        }
      ],
      "name": "getResolverTrust",
      "outputs": [
        {
          "internalType": "enum ResolverTrust",
          "name": "",
          "type": "uint8"
        }
      ],
      "stateMutability": "view",
      "type": "function"
    },
    {
      "inputs": [
        {
          "internalType": "uint256",
          "name": "tocId",
          "type": "uint256"
        }
      ],
      "name": "getResult",
      "outputs": [
        {
          "internalType": "bytes",
          "name": "result",
          "type": "bytes"
        }
      ],
      "stateMutability": "view",
      "type": "function"
    },
    {
      "inputs": [
        {
          "internalType": "address",
          "name": "tk",
          "type": "address"
        }
      ],
      "name": "getTKBalance",
      "outputs": [
        {
          "internalType": "uint256",
          "name": "",
          "type": "uint256"
        }
      ],
      "stateMutability": "view",
      "type": "function"
    },
    {
      "inputs": [
        {
          "internalType": "enum AccountabilityTier",
          "name": "tier",
          "type": "uint8"
        }
      ],
      "name": "getTKSharePercent",
      "outputs": [
        {
          "internalType": "uint256",
          "name": "",
          "type": "uint256"
        }
      ],
      "stateMutability": "view",
      "type": "function"
    },
    {
      "inputs": [
        {
          "internalType": "uint256",
          "name": "tocId",
          "type": "uint256"
        }
      ],
      "name": "getTOC",
      "outputs": [
        {
          "components": [
            {
              "internalType": "address",
              "name": "creator",
              "type": "address"
            },
            {
              "internalType": "address",
              "name": "resolver",
              "type": "address"
            },
            {
              "internalType": "enum TOCState",
              "name": "state",
              "type": "uint8"
            },
            {
              "internalType": "enum AnswerType",
              "name": "answerType",
              "type": "uint8"
            },
            {
              "internalType": "uint256",
              "name": "resolutionTime",
              "type": "uint256"
            },
            {
              "internalType": "uint256",
              "name": "disputeWindow",
              "type": "uint256"
            },
            {
              "internalType": "uint256",
              "name": "truthKeeperWindow",
              "type": "uint256"
            },
            {
              "internalType": "uint256",
              "name": "escalationWindow",
              "type": "uint256"
            },
            {
              "internalType": "uint256",
              "name": "postResolutionWindow",
              "type": "uint256"
            },
            {
              "internalType": "uint256",
              "name": "disputeDeadline",
              "type": "uint256"
            },
            {
              "internalType": "uint256",
              "name": "truthKeeperDeadline",
              "type": "uint256"
            },
            {
              "internalType": "uint256",
              "name": "escalationDeadline",
              "type": "uint256"
            },
            {
              "internalType": "uint256",
              "name": "postDisputeDeadline",
              "type": "uint256"
            },
            {
              "internalType": "address",
              "name": "truthKeeper",
              "type": "address"
            },
            {
              "internalType": "enum AccountabilityTier",
              "name": "tierAtCreation",
              "type": "uint8"
            }
          ],
          "internalType": "struct TOC",
          "name": "",
          "type": "tuple"
        }
      ],
      "stateMutability": "view",
      "type": "function"
    },
    {
      "inputs": [
        {
          "internalType": "uint256",
          "name": "tocId",
          "type": "uint256"
        }
      ],
      "name": "getTOCInfo",
      "outputs": [
        {
          "components": [
            {
              "internalType": "address",
              "name": "creator",
              "type": "address"
            },
            {
              "internalType": "address",
              "name": "resolver",
              "type": "address"
            },
            {
              "internalType": "enum TOCState",
              "name": "state",
              "type": "uint8"
            },
            {
              "internalType": "enum AnswerType",
              "name": "answerType",
              "type": "uint8"
            },
            {
              "internalType": "uint256",
              "name": "resolutionTime",
              "type": "uint256"
            },
            {
              "internalType": "uint256",
              "name": "disputeWindow",
              "type": "uint256"
            },
            {
              "internalType": "uint256",
              "name": "truthKeeperWindow",
              "type": "uint256"
            },
            {
              "internalType": "uint256",
              "name": "escalationWindow",
              "type": "uint256"
            },
            {
              "internalType": "uint256",
              "name": "postResolutionWindow",
              "type": "uint256"
            },
            {
              "internalType": "uint256",
              "name": "disputeDeadline",
              "type": "uint256"
            },
            {
              "internalType": "uint256",
              "name": "truthKeeperDeadline",
              "type": "uint256"
            },
            {
              "internalType": "uint256",
              "name": "escalationDeadline",
              "type": "uint256"
            },
            {
              "internalType": "uint256",
              "name": "postDisputeDeadline",
              "type": "uint256"
            },
            {
              "internalType": "address",
              "name": "truthKeeper",
              "type": "address"
            },
            {
              "internalType": "enum AccountabilityTier",
              "name": "tierAtCreation",
              "type": "uint8"
            },
            {
              "internalType": "bool",
              "name": "isResolved",
              "type": "bool"
            },
            {
              "internalType": "bytes",
              "name": "result",
              "type": "bytes"
            },
            {
              "internalType": "bool",
              "name": "hasCorrectedResult",
              "type": "bool"
            },
            {
              "internalType": "enum ResolverTrust",
              "name": "resolverTrust",
              "type": "uint8"
            }
          ],
          "internalType": "struct TOCInfo",
          "name": "info",
          "type": "tuple"
        }
      ],
      "stateMutability": "view",
      "type": "function"
    },
    {
      "inputs": [
        {
          "internalType": "uint256",
          "name": "tocId",
          "type": "uint256"
        }
      ],
      "name": "getTOCResult",
      "outputs": [
        {
          "components": [
            {
              "internalType": "enum AnswerType",
              "name": "answerType",
              "type": "uint8"
            },
            {
              "internalType": "bool",
              "name": "isResolved",
              "type": "bool"
            },
            {
              "internalType": "bytes",
              "name": "result",
              "type": "bytes"
            }
          ],
          "internalType": "struct TOCResult",
          "name": "result",
          "type": "tuple"
        }
      ],
      "stateMutability": "view",
      "type": "function"
    },
    {
      "inputs": [
        {
          "internalType": "uint256",
          "name": "tocId",
          "type": "uint256"
        }
      ],
      "name": "getTocDetails",
      "outputs": [
        {
          "internalType": "uint32",
          "name": "templateId",
          "type": "uint32"
        },
        {
          "internalType": "bytes",
          "name": "creationPayload",
          "type": "bytes"
        }
      ],
      "stateMutability": "view",
      "type": "function"
    },
    {
      "inputs": [
        {
          "internalType": "uint256",
          "name": "tocId",
          "type": "uint256"
        }
      ],
      "name": "getTocQuestion",
      "outputs": [
        {
          "internalType": "string",
          "name": "question",
          "type": "string"
        }
      ],
      "stateMutability": "view",
      "type": "function"
    },
    {
      "inputs": [
        {
          "internalType": "uint256",
          "name": "tocId",
          "type": "uint256"
        }
      ],
      "name": "hasCorrectedResult",
      "outputs": [
        {
          "internalType": "bool",
          "name": "",
          "type": "bool"
        }
      ],
      "stateMutability": "view",
      "type": "function"
    },
    {
      "inputs": [
        {
          "internalType": "enum BondType",
          "name": "bondType",
          "type": "uint8"
        },
        {
          "internalType": "address",
          "name": "token",
          "type": "address"
        },
        {
          "internalType": "uint256",
          "name": "amount",
          "type": "uint256"
        }
      ],
      "name": "isAcceptableBond",
      "outputs": [
        {
          "internalType": "bool",
          "name": "",
          "type": "bool"
        }
      ],
      "stateMutability": "view",
      "type": "function"
    },
    {
      "inputs": [
        {
          "internalType": "uint256",
          "name": "tocId",
          "type": "uint256"
        }
      ],
      "name": "isContested",
      "outputs": [
        {
          "internalType": "bool",
          "name": "",
          "type": "bool"
        }
      ],
      "stateMutability": "view",
      "type": "function"
    },
    {
      "inputs": [
        {
          "internalType": "uint256",
          "name": "tocId",
          "type": "uint256"
        }
      ],
      "name": "isFullyFinalized",
      "outputs": [
        {
          "internalType": "bool",
          "name": "",
          "type": "bool"
        }
      ],
      "stateMutability": "view",
      "type": "function"
    },
    {
      "inputs": [
        {
          "internalType": "address",
          "name": "resolver",
          "type": "address"
        }
      ],
      "name": "isRegisteredResolver",
      "outputs": [
        {
          "internalType": "bool",
          "name": "",
          "type": "bool"
        }
      ],
      "stateMutability": "view",
      "type": "function"
    },
    {
      "inputs": [
        {
          "internalType": "address",
          "name": "tk",
          "type": "address"
        }
      ],
      "name": "isWhitelistedTruthKeeper",
      "outputs": [
        {
          "internalType": "bool",
          "name": "",
          "type": "bool"
        }
      ],
      "stateMutability": "view",
      "type": "function"
    },
    {
      "inputs": [],
      "name": "nextTocId",
      "outputs": [
        {
          "internalType": "uint256",
          "name": "",
          "type": "uint256"
        }
      ],
      "stateMutability": "view",
      "type": "function"
    },
    {
      "inputs": [],
      "name": "owner",
      "outputs": [
        {
          "internalType": "address",
          "name": "",
          "type": "address"
        }
      ],
      "stateMutability": "view",
      "type": "function"
    },
    {
      "inputs": [
        {
          "internalType": "enum FeeCategory",
          "name": "",
          "type": "uint8"
        }
      ],
      "name": "protocolBalances",
      "outputs": [
        {
          "internalType": "uint256",
          "name": "",
          "type": "uint256"
        }
      ],
      "stateMutability": "view",
      "type": "function"
    },
    {
      "inputs": [],
      "name": "protocolFeeMinimum",
      "outputs": [
        {
          "internalType": "uint256",
          "name": "",
          "type": "uint256"
        }
      ],
      "stateMutability": "view",
      "type": "function"
    },
    {
      "inputs": [],
      "name": "protocolFeeStandard",
      "outputs": [
        {
          "internalType": "uint256",
          "name": "",
          "type": "uint256"
        }
      ],
      "stateMutability": "view",
      "type": "function"
    },
    {
      "inputs": [
        {
          "internalType": "address",
          "name": "resolver",
          "type": "address"
        }
      ],
      "name": "registerResolver",
      "outputs": [],
      "stateMutability": "nonpayable",
      "type": "function"
    },
    {
      "inputs": [
        {
          "internalType": "uint256",
          "name": "tocId",
          "type": "uint256"
        },
        {
          "internalType": "string",
          "name": "reason",
          "type": "string"
        }
      ],
      "name": "rejectTOC",
      "outputs": [],
      "stateMutability": "nonpayable",
      "type": "function"
    },
    {
      "inputs": [
        {
          "internalType": "address",
          "name": "tk",
          "type": "address"
        }
      ],
      "name": "removeWhitelistedTruthKeeper",
      "outputs": [],
      "stateMutability": "nonpayable",
      "type": "function"
    },
    {
      "inputs": [],
      "name": "renounceOwnership",
      "outputs": [],
      "stateMutability": "nonpayable",
      "type": "function"
    },
    {
      "inputs": [
        {
          "internalType": "uint256",
          "name": "tocId",
          "type": "uint256"
        },
        {
          "internalType": "enum DisputeResolution",
          "name": "resolution",
          "type": "uint8"
        },
        {
          "internalType": "bytes",
          "name": "correctedResult",
          "type": "bytes"
        }
      ],
      "name": "resolveDispute",
      "outputs": [],
      "stateMutability": "nonpayable",
      "type": "function"
    },
    {
      "inputs": [
        {
          "internalType": "uint256",
          "name": "tocId",
          "type": "uint256"
        },
        {
          "internalType": "enum DisputeResolution",
          "name": "resolution",
          "type": "uint8"
        },
        {
          "internalType": "bytes",
          "name": "correctedResult",
          "type": "bytes"
        }
      ],
      "name": "resolveEscalation",
      "outputs": [],
      "stateMutability": "nonpayable",
      "type": "function"
    },
    {
      "inputs": [
        {
          "internalType": "uint256",
          "name": "tocId",
          "type": "uint256"
        },
        {
          "internalType": "address",
          "name": "bondToken",
          "type": "address"
        },
        {
          "internalType": "uint256",
          "name": "bondAmount",
          "type": "uint256"
        },
        {
          "internalType": "bytes",
          "name": "payload",
          "type": "bytes"
        }
      ],
      "name": "resolveTOC",
      "outputs": [],
      "stateMutability": "payable",
      "type": "function"
    },
    {
      "inputs": [
        {
          "internalType": "uint256",
          "name": "tocId",
          "type": "uint256"
        },
        {
          "internalType": "enum DisputeResolution",
          "name": "resolution",
          "type": "uint8"
        },
        {
          "internalType": "bytes",
          "name": "correctedResult",
          "type": "bytes"
        }
      ],
      "name": "resolveTruthKeeperDispute",
      "outputs": [],
      "stateMutability": "nonpayable",
      "type": "function"
    },
    {
      "inputs": [
        {
          "internalType": "uint256",
          "name": "",
          "type": "uint256"
        }
      ],
      "name": "resolverFeeByToc",
      "outputs": [
        {
          "internalType": "uint256",
          "name": "",
          "type": "uint256"
        }
      ],
      "stateMutability": "view",
      "type": "function"
    },
    {
      "inputs": [
        {
          "internalType": "address",
          "name": "",
          "type": "address"
        },
        {
          "internalType": "uint32",
          "name": "",
          "type": "uint32"
        }
      ],
      "name": "resolverTemplateFees",
      "outputs": [
        {
          "internalType": "uint256",
          "name": "",
          "type": "uint256"
        }
      ],
      "stateMutability": "view",
      "type": "function"
    },
    {
      "inputs": [
        {
          "internalType": "uint256",
          "name": "duration",
          "type": "uint256"
        }
      ],
      "name": "setDefaultDisputeWindow",
      "outputs": [],
      "stateMutability": "nonpayable",
      "type": "function"
    },
    {
      "inputs": [
        {
          "internalType": "uint256",
          "name": "amount",
          "type": "uint256"
        }
      ],
      "name": "setProtocolFeeMinimum",
      "outputs": [],
      "stateMutability": "nonpayable",
      "type": "function"
    },
    {
      "inputs": [
        {
          "internalType": "uint256",
          "name": "amount",
          "type": "uint256"
        }
      ],
      "name": "setProtocolFeeStandard",
      "outputs": [],
      "stateMutability": "nonpayable",
      "type": "function"
    },
    {
      "inputs": [
        {
          "internalType": "uint32",
          "name": "templateId",
          "type": "uint32"
        },
        {
          "internalType": "uint256",
          "name": "amount",
          "type": "uint256"
        }
      ],
      "name": "setResolverFee",
      "outputs": [],
      "stateMutability": "nonpayable",
      "type": "function"
    },
    {
      "inputs": [
        {
          "internalType": "address",
          "name": "resolver",
          "type": "address"
        },
        {
          "internalType": "enum ResolverTrust",
          "name": "trust",
          "type": "uint8"
        }
      ],
      "name": "setResolverTrust",
      "outputs": [],
      "stateMutability": "nonpayable",
      "type": "function"
    },
    {
      "inputs": [
        {
          "internalType": "enum AccountabilityTier",
          "name": "tier",
          "type": "uint8"
        },
        {
          "internalType": "uint256",
          "name": "basisPoints",
          "type": "uint256"
        }
      ],
      "name": "setTKSharePercent",
      "outputs": [],
      "stateMutability": "nonpayable",
      "type": "function"
    },
    {
      "inputs": [
        {
          "internalType": "address",
          "name": "_treasury",
          "type": "address"
        }
      ],
      "name": "setTreasury",
      "outputs": [],
      "stateMutability": "nonpayable",
      "type": "function"
    },
    {
      "inputs": [
        {
          "internalType": "address",
          "name": "",
          "type": "address"
        }
      ],
      "name": "tkBalances",
      "outputs": [
        {
          "internalType": "uint256",
          "name": "",
          "type": "uint256"
        }
      ],
      "stateMutability": "view",
      "type": "function"
    },
    {
      "inputs": [
        {
          "internalType": "enum AccountabilityTier",
          "name": "",
          "type": "uint8"
        }
      ],
      "name": "tkSharePercent",
      "outputs": [
        {
          "internalType": "uint256",
          "name": "",
          "type": "uint256"
        }
      ],
      "stateMutability": "view",
      "type": "function"
    },
    {
      "inputs": [
        {
          "internalType": "uint256",
          "name": "tocId",
          "type": "uint256"
        },
        {
          "internalType": "address",
          "name": "newCreator",
          "type": "address"
        }
      ],
      "name": "transferCreator",
      "outputs": [],
      "stateMutability": "nonpayable",
      "type": "function"
    },
    {
      "inputs": [
        {
          "internalType": "address",
          "name": "newOwner",
          "type": "address"
        }
      ],
      "name": "transferOwnership",
      "outputs": [],
      "stateMutability": "nonpayable",
      "type": "function"
    },
    {
      "inputs": [],
      "name": "treasury",
      "outputs": [
        {
          "internalType": "address",
          "name": "",
          "type": "address"
        }
      ],
      "stateMutability": "view",
      "type": "function"
    },
    {
      "inputs": [],
      "name": "withdrawProtocolFees",
      "outputs": [
        {
          "internalType": "uint256",
          "name": "creationFees",
          "type": "uint256"
        },
        {
          "internalType": "uint256",
          "name": "slashingFees",
          "type": "uint256"
        }
      ],
      "stateMutability": "nonpayable",
      "type": "function"
    },
    {
      "inputs": [
        {
          "internalType": "enum FeeCategory",
          "name": "category",
          "type": "uint8"
        }
      ],
      "name": "withdrawProtocolFeesByCategory",
      "outputs": [
        {
          "internalType": "uint256",
          "name": "amount",
          "type": "uint256"
        }
      ],
      "stateMutability": "nonpayable",
      "type": "function"
    },
    {
      "inputs": [],
      "name": "withdrawTKFees",
      "outputs": [],
      "stateMutability": "nonpayable",
      "type": "function"
    }
  ],
  "bytecode": "0x60808060405234607f5760015f553315606c5760018054336001600160a01b0319821681179092556001600160a01b03167f8be0079c531659141344cd1fd0a4f28419497f9722a3daafe3b4186f6b6457e05f80a362015180600c556001600955615f5290816100848239f35b631e4fbdf760e01b5f525f60045260245ffd5b5f80fdfe60a06040526004361015610011575f80fd5b5f3560e01c806303d8bc3814614bcb5780630bad0fbb14614bae5780630c2d848d14614aef5780630ca4c272146109175780630ee6845e14614a955780631039bae214614a7857806318d547a814614a5b5780631b334aba1461482a5780631cc9bb2114614782578063236ac8d214610b0f5780632377f03c1461469e57806326091f47146145215780632ca68629146144e5578063321b8260146144b657806332be39a6146143bd57806334a42384146143a0578063364a94901461436f57806336d52ac91461436f57806339612abe146142c25780633ba25c4b146142415780633c3c5829146141fd5780633ceb5e0214613da75780633ebecf5514613d2257806342c52a1c146116d857806342ef2c3c14613c995780634937a94314613c7c5780634e0d6db11461369757806355e9c3ac1461367a57806357bd65b81461361a578063588e1737146130965780635d4efbe714612fd75780635d87900614612f2a5780635f6c5a1314612f0c5780636169c30814612cf657806361d027b314612cce57806365ecc6d614612bd0578063715018a614612b7557806374aafbed14612b5c57806377321b3714612b2f578063785cfb05146111935780637c88943514612b125780637d955e1214612a1d5780637ee3c5b2146128b45780638795cccb1461277957806389745f2a1461203a5780638d5ee6f814611fc65780638da5cb5b14611f9e578063995e433914611f605780639f3e1b5314611e43578063a05d888714611ce3578063a2f13cf414611710578063a3f95d2f146116d8578063ac1b2335146116ba578063acaa59f914611641578063afb90bd11461158b578063bf45714c14611443578063c9cf1958146113ae578063c9dccbad1461134e578063cc30632c146112a9578063cc9144a6146111cf578063ce76f8c914611193578063cead7ce214611134578063d18d3f57146110f2578063d8dfcea0146110ce578063db75b52414610c2c578063df108b7314610b5f578063e036358714610b0f578063e4e2bfe414610a8e578063ef339228146109c4578063f0f4426014610941578063f2ef844014610917578063f2fde38b14610891578063f6611e9614610535578063f80a1a551461042d5763f836db6a14610352575f80fd5b346104295760403660031901126104295761036b614ca5565b60243590600482101561042957610380615850565b610388615486565b6001600160a01b03165f8181526004602052604090205490919060ff166103ae81614c85565b1561041a575f828152600460205260409081902080547f2f19e0ee2cf3d6ed498d559f3260247d553fa9d6d7f6e9bd6e5451a1a84d10a79360ff909116916103f790829061512d565b82519161040381614c85565b825261040e81614c85565b6020820152a260015f55005b63aba4733960e01b5f5260045ffd5b5f80fd5b34610429576020366003190112610429576004356002811015610429576010546001600160a01b031680156105265733036105185761046a615486565b61047381614d3a565b548015610509575f61048483614d3a565b555f80808084335af1610495615160565b50156104fa57602091806104f157600182915b036104eb57815b604051918252838201527ff299f1f754362fc7673effe66e73ca8d292dd87fc9fef1f28f7b97b2edc4c75b60403392a260015f55604051908152f35b5f6104af565b60015f916104a8565b6312171d8360e31b5f5260045ffd5b630d00db4d60e31b5f5260045ffd5b6282b42960e81b5f5260045ffd5b63b2c4cce960e01b5f5260045ffd5b34610429576020366003190112610429576004355f61024060405161055981614f4b565b8281528260208201528260408201528260608201528260808201528260a08201528260c08201528260e08201528261010082015282610120820152826101408201528261016082015282610180820152826101a0820152826101c0820152826101e08201526060610200820152826102208201520152805f52600560205260405f2060018060a01b0381541690600181015492600282015493600383015492600481015490600581015460068201546007830154600884015491600985015493600b600a87015496015496600960ff8a60a01c16101561087d57895f52600860205260405f20995f52600a60205260405f205460ff169a600160a01b600190038a165f52600460205260405f205460ff169c6040519e8f9161067a83614f4b565b82526001600160a01b038c16602083015261069f60ff60a08e901c1660408401614f88565b8b60a81c60ff166106af90614c85565b8b60a81c60ff166060830152608082015260a0015260c08d015260e08c01526101008b01526101208a0152610140890152610160880152610180870152600160a01b6001900381166101a08701528060a01c60ff1661070d90614c85565b60a01c60ff166101c086015260a01c60ff166007146101e0850152610731906152cb565b610200840152151561022083015261074881614c85565b61024082015260408051602080825283516001600160a01b03908116828401529084015116818301529082015190918291610787906060840190614c78565b606081015161079581614c85565b6080830152608081015160a083015260a081015160c083015260c081015160e083015260e08101516101008301526101008101516101208301526101208101516101408301526101408101516101608301526101608101516101808301526101808101516101a0830152600160a01b600190036101a0820151166101c08301526101c081015161082481614c85565b6101e08301526101e0810151151561020083015261020081015161022083016102609052610280830161085691614ddc565b906102208101511515610240840152610240015161087381614c85565b6102608301520390f35b634e487b7160e01b5f52602160045260245ffd5b34610429576020366003190112610429576108aa614ca5565b6108b2615850565b6001600160a01b0316801561090457600180546001600160a01b0319811683179091556001600160a01b03167f8be0079c531659141344cd1fd0a4f28419497f9722a3daafe3b4186f6b6457e05f80a3005b631e4fbdf760e01b5f525f60045260245ffd5b34610429576020366003190112610429576004355f526016602052602060405f2054604051908152f35b346104295760203660031901126104295761095a614ca5565b610962615850565b61096a615486565b6001600160a01b031680156109b557601080546001600160a01b031916821790557f3c864541ef71378c6229510ed90f376565ee42d9c5e0904a984a9e863e6db44f5f80a260015f55005b63e6c4247b60e01b5f5260045ffd5b34610429576020366003190112610429576004356060604080516109e781614edd565b5f81525f60208201520152805f526005602052600160405f20015460ff808260a81c169160a01c1691600983101561087d575f526008602052610a8a610a5160405f2060405193610a3785614edd565b610a4081614c85565b8452600760208501951485526152cb565b604083019081526040519384936020855251610a6c81614c85565b60208501525115156040840152516060808401526080830190614ddc565b0390f35b3461042957602036600319011261042957600435805f52600560205260405f2060ff600182015460a01c16600981101561087d576004149081610b00575b5080610ae0575b6020906040519015158152f35b505f526006602052602060018060a01b0360405f205460081c1615610ad3565b60079150015442101582610acc565b3461042957604036600319011261042957610b28614ca5565b610b30614cbb565b9060018060a01b03165f52601760205263ffffffff60405f2091165f52602052602060405f2054604051908152f35b3461042957602036600319011261042957606080604051610b7f81614f30565b5f81525f60208201525f604082015201526004355f52600760205260405f20604051610baa81614f30565b81546001600160a01b039081168252600183015416602082019081526002830154604083019081529092610a8a9190610be5906003016152cb565b90606084019182526040519485946020865260018060a01b03905116602086015260018060a01b0390511660408501525160608401525160808084015260a0830190614ddc565b608036600319011261042957600435610c43614c8f565b604435906064356001600160401b03811161042957610c66903690600401614cce565b9290610c70615486565b845f52600560205260ff600160405f20015460a01c16600981101561087d576003036110bf57845f52600560205260405f2060038101805415928315936110b1575b8361107c575b5f610cff91600185019860018060a01b038a541690838c604051968795869485936323c8251f60e21b85526004850152336024850152606060448501526064840191614f94565b03925af1908115611071575f91611034575b506003604051610d2081614f30565b3381526001600160a01b03888116602080840191825260408085018b8152606086019788525f8f815260079093529120935184549084166001600160a01b03199182161785559151600185018054919094169216919091179091555160028201559151805191909201916001600160401b03821161102057610dac82610da68554614fc1565b8561500f565b602090601f8311600114610fbd57610ddb92915f9183610fb2575b50508160011b915f199060031b1c19161790565b90555b4260028301558054610ef75750928560ff937f611fac26c7ea379a6691576c350b804a81e881eb5b0dd7cabad7417339c14e029693602096835f5260078852610e6d600360405f20600760a01b8a60a01b198a54161789555f6007850155600684019384548015155f14610eed57610e58600a9142614fb4565b915b0155865f5260088b520160405f20615054565b81610ee3575b50610e98575b5050505460a81c1660405190610e8e81614c85565b8152a25b60015f55005b610ed881610eb55f516020615ebd5f395f51905f529386336154a4565b604080516001600160a01b03909616865260208601919091523394918291820190565b0390a3858581610e79565b9050541589610e73565b50600a5f91610e5a565b60ff949250610f6a87969460079893610f427f997d5fb632a754ff9f212cd4c44319588da69472c1d89cd3820953b4de7e74f894600160a21b8a60a01b198a54161789555442614fb4565b9901899055604080516001600160a01b03909616865260208601919091523394918291820190565b0390a35460a81c169160405192610f8081614c85565b835260208301527f533c0d7e5c4ab03cbde5aae37e9293a31b7f2ea89c960bac07bcc81e4914004c60403393a3610e92565b015190508b80610dc7565b90601f19831691845f52815f20925f5b8181106110085750908460019594939210610ff0575b505050811b019055610dde565b01515f1960f88460031b161c191690558a8080610fe3565b92936020600181928786015181550195019301610fcd565b634e487b7160e01b5f52604160045260245ffd5b90503d805f833e6110458183614f67565b81016020828203126104295781516001600160401b0381116104295761106b920161546c565b88610d11565b6040513d5f823e3d90fd5b611086858761570b565b156110a2575f610cff9161109a8789615803565b915050610cb8565b630a02a21f60e21b5f5260045ffd5b600683015415159350610cb2565b63baf3f0f760e01b5f5260045ffd5b34610429575f36600319011261042957604060115460125482519182526020820152f35b3461042957602036600319011261042957602061112a6001600160a01b03611118614ca5565b165f52600e60205260405f2054151590565b6040519015158152f35b34610429576020366003190112610429577fb404cac19fb1cbeff98d325795b08886e3cd8fe8cb1a2f193aac66f13fb239c36040600435611173615850565b61117b615486565b8060115560125482519182526020820152a160015f55005b34610429576020366003190112610429576004356004811015610429576111b981614c85565b5f526013602052602060405f2054604051908152f35b3461042957602036600319011261042957600435805f5260056020525f60018060a01b0360016040832001541691602460405180948193636648a25360e11b835260048301525afa908115611071575f905f9261124b575b50610a8a63ffffffff92604051938493168352604060208401526040830190614ddc565b9150503d805f833e61125d8183614f67565b8101906040818303126104295780519063ffffffff82168203610429576020810151906001600160401b0382116104295763ffffffff93610a8a926112a2920161546c565b9250611227565b34610429576020366003190112610429576004356112c5615486565b5f818152600560205260409020600101546001600160a01b0316330361051857805f52601660205260405f2054801561050957815f5260166020525f60408120555f80808084335af1611316615160565b50156104fa576040519081527fd2cfb9c8c98fd461308e4f7ab5fd85eb1a6c6db7c82414e5ee099004037b94d460203392a360015f55005b34610429576020366003190112610429577f3daf9118409b8d5c3aa854e2cce123967d50d965c1d1707d32544bfd0abcc27b604060043561138d615850565b611395615486565b600c549080600c5582519182526020820152a160015f55005b346104295760403660031901126104295760043563ffffffff8116809103610429576024356113db615486565b335f52600460205260ff60405f2054166113f481614c85565b1561041a57335f52601760205260405f20825f526020528060405f20556040519081527f05ce66cf67b9fe7d901f4091892beabe2579714dd21fd9dfac828d0127d4a98b60203392a360015f55005b346104295760203660031901126104295760043561145f615396565b50805f52600560205260405f209060018201549160ff8360a01c16600981101561087d5760070361157257600a8101548015159081611581575b5061157257610a8a92825f52600660205260405f209160ff8260a81c1693805f52600860205260405f209360018060a01b03905460081c161515905f52600a60205260ff60405f2054169060ff600b600285015494015460a01c169360018060a01b03165f52600460205261152d60ff60405f205416956040519761151d89614ef8565b61152681614c85565b88526152cb565b60208701526001604087015260608601521515608085015260a084015261155381614c85565b60c083015261156181614c85565b60e082015260405191829182614e3d565b630df706ad60e11b5f5260045ffd5b9050421084611499565b34610429576020366003190112610429576004356115a7615486565b805f52600560205260405f20815f52600660205260405f209060ff600182015460a01c16600981101561087d576005036110bf57600a820154156116325760098101544210611623575f838152600f60205260409020546001600160a01b031661161457610e9292615a3b565b63119b4fd360e11b5f5260045ffd5b630871d38960e11b5f5260045ffd5b634a44555360e11b5f5260045ffd5b346104295760203660031901126104295761165a614ca5565b611662615850565b61166a615486565b6001600160a01b03165f818152600e60205260409020541561041a5761168f81615d85565b507f9e5c3d2cd199f4eb8bcd1c8c7dec1778119883d4ac2baa90c17ea86e6a4d0d845f80a260015f55005b3461042957602036600319011261042957602061112a6004356153d3565b34610429576020366003190112610429576001600160a01b036116f9614ca5565b165f526015602052602060405f2054604051908152f35b346104295761171e36614cfb565b611729939293615850565b611731615486565b825f52600660205260405f209182549160018060a01b038360081c16156116325760068401805461161457855f52600560205260405f2090865f526007602052600160ff60405f20961661178481614e00565b146110bf5742905561179587614c85565b866119d6575060078401805460ff19166001179055801561199457845f52600860205260405f20916001600160401b038211611020576117d982610da68554614fc1565b5f90601f831160011461192b57918061180c926118529695945f926119205750508160011b915f199060031b1c19161790565b90555b5f848152600a60205260409020805460ff191660019081179091558354825491830154600290930154926001600160a01b039081169281169160081c1686615884565b815f516020615efd5f395f51905f5260018060a01b03835460081c16600184019361188e60018060a01b038654169260028301938454916154a4565b5493549054604080516001600160a01b039384168152602081019290925260089590951c9091169390a3807fe656969aff282442c66950ff73d5bba0a556dcf6a10a4f4711ddbdf3e3bae797602060405160018152a25b604051916118f281614c85565b82527fd479d35c2c3aee3d59f9972a1214f8effa0c54c4f8ff4dcf020913c0a5e27c6260203393a360015f55005b013590508980610dc7565b601f19831691845f5260205f20925f5b81811061197c57509160019391856118529897969410611963575b505050811b01905561180f565b01355f19600384901b60f8161c19169055888080611956565b9193602060018192878701358155019501920161193b565b505060088201906119a58254614fc1565b156119c7576119c261185292855f52600860205260405f20615054565b61180f565b630ad72fc160e01b5f5260045ffd5b9150506119e285614c85565b60018503611ab3575060078201805460ff191690558054825460018401546002909401549293611a2693926001600160a01b039182169260081c8216911686615884565b815f516020615ebd5f395f51905f5260018060a01b038354166001840193611a5f60018060a01b038654169260028301938454916154a4565b5493549054604080516001600160a01b03938416815260208101929092529190941693a3807fe656969aff282442c66950ff73d5bba0a556dcf6a10a4f4711ddbdf3e3bae79760206040515f8152a26118e5565b611abc85614c85565b60028503611c02576001908101805460ff60a01b1916600160a31b17905581549082018054600284018054929487945f516020615ebd5f395f51905f529492939192611b169290916001600160a01b0391821691166154a4565b5493549054604080516001600160a01b03938416815260208101929092529190941693a3815f516020615efd5f395f51905f5260018060a01b03835460081c166001840193611b7660018060a01b038654169260028301938454916154a4565b5493549054604080516001600160a01b039384168152602081019290925260089590951c9091169390a3805f516020615edd5f395f51905f52608060405160208152602e60208201527f41646d696e2063616e63656c6c656420647572696e6720706f73742d7265736f60408201526d6c7574696f6e206469737075746560901b6060820152a26118e5565b909190611c0e85614c85565b60038514611c1f575b5050506118e5565b6001908101805460ff60a01b1916600160a31b179055825490830154600290930154611c7e93611c5b926001600160a01b0391821691166154a4565b80546001820154600290920154916001600160a01b039081169160081c166154a4565b805f516020615edd5f395f51905f52608060405160208152602e60208201527f496e76616c6964207265736f6c7574696f6e20666f7220706f73742d7265736f60408201526d6c7574696f6e206469737075746560901b6060820152a2828080611c17565b3461042957602036600319011261042957606060e0604051611d0481614ef8565b5f81525f60208201525f604082015282808201528260808201525f60a08201525f60c082015201526004355f52600f60205260405f20604051611d4681614ef8565b81546001600160a01b039081168252600183015416602082019081526002830154604083019081529092610a8a91611d80600383016152cb565b9160608501928352611e23611d97600483016152cb565b60808701908152611e1060058401549560a08901968752611dc6600760068701549660c08c01978852016152cb565b9560e08a019687526040519a8b9a60208c5260018060a01b0390511660208c015260018060a01b0390511660408b01525160608a01525161010060808a0152610120890190614ddc565b9051878203601f190160a0890152614ddc565b925160c08601525160e085015251838203601f1901610100850152614ddc565b3461042957602036600319011261042957611e5c614ca5565b611e64615486565b803b15611f51576001600160a01b03165f8181526004602052604090205460ff16611e8e81614c85565b611f4257611e9b81615d35565b50604051611ea881614edd565b600181526002602082014281526040830190338252845f526004602052611edd60405f209451611ed781614c85565b8561512d565b51600184015560018060a01b0390511691019060018060a01b03166bffffffffffffffffffffffff60a01b82541617905560405190600182527f351d8aa72c256ec5db1523215a5c3cdbd13dfcaceda2bd78e879f9cbe0af887160203393a360015f55005b630ea075bf60e21b5f5260045ffd5b636f7c43f160e01b5f5260045ffd5b34610429576020366003190112610429576004355f526008602052610a8a611f8a60405f206152cb565b604051918291602083526020830190614ddc565b34610429575f366003190112610429576001546040516001600160a01b039091168152602090f35b3461042957604036600319011261042957611fdf614ca5565b611fe7614cbb565b6012549160018060a01b03165f52601760205263ffffffff60405f2091165f5260205260405f205490610a8a61201d8383614fb4565b604051938493846040919493926060820195825260208201520152565b6101003660031901126104295761204f614ca5565b612057614cbb565b906044356001600160401b03811161042957612077903690600401614cce565b91909260643563ffffffff81168091036104295760843563ffffffff81168091036104295760a4359063ffffffff82168092036104295760c4359263ffffffff84168094036104295760e435946001600160a01b0386168603610429576120dc615486565b6001600160a01b0387165f9081526004602052604090205460ff169561210187614c85565b861561041a5761211087614c85565b6001870361277057620151805b808411612761578085116127615780861161276157861161276157604051637ff2fb7760e01b815263ffffffff831660048201526020816024816001600160a01b038d165afa908115611071575f91612726575b501561271757803b15611f5157600954985f198a146127035760018a81016009555f8b8152600560209081526040918290208054336001600160a01b031991821617825593810180546001600160a01b038f1695168517905591516373c515d960e01b815263ffffffff8716600482015291939192839060249082905afa8015611071578c925f916126c3575b5061220881614c85565b60018401549060ff60a81b9060a81b169060ff60a81b19161760018401558560038401558660048401558760058401558860068401558c60208c600b86019460018060a01b0388166bffffffffffffffffffffffff60a01b8754161786556122b360405194859384936329b683d160e01b8552600485015260018060a01b0316602484015263ffffffff8b166044840152336064840152610120608484015286610124840191614f94565b8a60a48301528b60c48301528c60e48301528d61010483015203815f60018060a01b038a165af1908115611071575f91612688575b506122f281614e00565b60028103612308576224721760e81b5f5260045ffd5b6123558d868e60ff9461231a81614e00565b612652576001926001600160a01b038316907fa6f7f6a2e9d76ee4d0a605edec031f6493e64ccb9652ca56c666c192346f90895f80a36159d7565b61235e81614c85565b8354908260a01b9060a01b16908260a01b19161780845560a01c1660125460018060a01b038d165f52601760205260405f2063ffffffff88165f5260205260405f2054906123ac8282614fb4565b803410612643578f936123be81614c85565b5f5260136020526123e16127106123d960405f20548561550d565b048093615877565b905f8052601460205260405f206123f9838254614fb4565b90558261261d575b8361260a575b8034116125e0575b5060405192839261243192846040919493926060820195825260208201520152565b037f9ec51ea9d3685075cba328288aea94ef00e0ac7977f844d5d8f932726cfb63d891a2604051635d48c50360e01b8152600481018d905263ffffffff86166024820152608060448201529c8d9161248e91608484019190614f94565b3360648301526001600160a01b038c16918e9103815a6020945f91f19b8c15611071575f9c6125a3575b5060098c101561087d5760018260209d826125309501549060ff60a01b9060a01b169060ff60a01b1916178282015501549063ffffffff60ff808460a81c16925460a01c16956040519b61250b81614c85565b8c52168d8b015261251b81614c85565b60408a015260ff60608a019160a01c16614c78565b6001600160a01b0316608087015261254781614c85565b60a086015260c085015260e084015261010083015261012082015233916001600160a01b03169083907f6cb65d4696842ad6cce3e64b057feac74b9fbd89cda2787008cf02fa81b0c3a39061014090a460015f55604051908152f35b909b506020813d6020116125d8575b816125bf60209383614f67565b8101031261042957516009811015610429579a8c6124b8565b3d91506125b2565b5f80809396506125f1819334615877565b335af16125fc615160565b50156104fa578e925f61240f565b845f5260166020528360405f2055612407565b60018060a01b0389165f52601560205260405f2061263c848254614fb4565b9055612401565b631dc930eb60e01b5f5260045ffd5b5f926001600160a01b038316907f1fc507d4c914fa4232fc07f57c0f9e7230350618f1b8c73ea4754f057014fd278580a36159d7565b90506020813d6020116126bb575b816126a360209383614f67565b8101031261042957516003811015610429578e6122e8565b3d9150612696565b919250506020813d6020116126fb575b816126e060209383614f67565b810103126104295751906004821015610429578b918e6121fe565b3d91506126d3565b634e487b7160e01b5f52601160045260245ffd5b63258bbff760e21b5f5260045ffd5b90506020813d602011612759575b8161274160209383614f67565b8101031261042957518015158103610429578b612171565b3d9150612734565b63d848c5a160e01b5f5260045ffd5b62278d0061211d565b34610429575f366003190112610429576010546001600160a01b03168015610526573303610518576127a9615486565b60146020527f4f26c3876aa9f4b92579780beea1161a61f87ebf1ec6ee865b299e447ecba99c5460015f527fb6c61a840592cc84133e4b25bd509abf4659307c57b160799b38490a5aa48f2c54906128018282614fb4565b80156105095760146020525f7f4f26c3876aa9f4b92579780beea1161a61f87ebf1ec6ee865b299e447ecba99c819055600181527fb6c61a840592cc84133e4b25bd509abf4659307c57b160799b38490a5aa48f2c81905590819081908190335af161286b615160565b50156104fa5760409182518281528160208201527ff299f1f754362fc7673effe66e73ca8d292dd87fc9fef1f28f7b97b2edc4c75b843392a260015f5582519182526020820152f35b34610429576020366003190112610429576004356001600160401b03811161042957366023820112156104295780600401356001600160401b038111610429573660248260051b840101116104295761290b615486565b5f915f905f5b838110156129fa5760248160051b83010135801580156129ee575b6129d0575f8181526005602052604090206001600160a01b038516156129d9575b600101546001600160a01b031633036129d057805f52601660205260405f20549081612980575b50506001905b01612911565b61299c826001949398835f5260166020525f6040812055614fb4565b966040519081527fd2cfb9c8c98fd461308e4f7ab5fd85eb1a6c6db7c82414e5ee099004037b94d460203392a39086612974565b5060019061297a565b60018101546001600160a01b0316945061294d565b5060095481101561292c565b848015610509575f80808093335af1612a11615160565b50156104fa5760015f55005b3461042957602036600319011261042957600435612a39615396565b50805f52600560205260405f20815f52600660205260405f2091600182015460ff8160a81c1692825f52600860205260405f209260ff8360a01c1690600982101561087d57610a8a9660018060a01b03905460081c161515905f52600a602052600760ff60405f2054169260ff600b600287015496015460a01c169560018060a01b03165f526004602052612aed60ff60405f2054169760405199612add8b614ef8565b612ae681614c85565b8a526152cb565b602089015214604087015260608601521515608085015260a084015261155381614c85565b34610429575f366003190112610429576020600254604051908152f35b34610429576020366003190112610429576004355f526007602052610a8a611f8a600360405f20016152cb565b3461042957602061112a612b6f36614e0a565b91615791565b34610429575f36600319011261042957612b8d615850565b600180546001600160a01b031981169091555f906001600160a01b03167f8be0079c531659141344cd1fd0a4f28419497f9722a3daafe3b4186f6b6457e08280a3005b3461042957612bde36614e0a565b9190612be8615850565b612bf0615486565b612bf982614e00565b815f52600b60205260405f2060405191604083018381106001600160401b038211176110205760405260018060a01b03169384835260208301918183528054600160401b81101561102057612c5391600182018155615369565b612cbb57925183546001600160a01b0319166001600160a01b03919091161783559051600192909201919091557f5eb8b3476545e80d6b9744ac4bcc3cdbb0d64b65a3251accf52f98492fedeeb890602090612cae84614e00565b604051908152a360015f55005b634e487b7160e01b5f525f60045260245ffd5b34610429575f366003190112610429576010546040516001600160a01b039091168152602090f35b3461042957602036600319011261042957604051612d1381614f14565b5f8152602081015f9052604081015f9052606081015f9052608081016060905260a081016060905260c081015f905260e081015f905261010081015f905261012081016060905261014081015f9052610160015f90526004355f52600660205260405f20604051612d8381614f14565b81549160ff8316612d9381614e00565b82526001600160a01b0360089390931c831660208301908152600182015490931660408301908152600282015460608401908152612dd3600384016152cb565b6080850190815290612de7600485016152cb565b9160a0860192835260058501549260c0870193845260068601549060e08801918252600787015460ff16926101008901931515845260088801612e29906152cb565b946101208a01958652600989015460ff16986101408b0199612e4a81614c85565b8a52600a0154976101608b019889526040519b8c9b60208d5251612e6d81614e00565b60208d0152516001600160a01b0390811660408d015290511660608b01525160808a01525161018060a08a0152612ea9906101a08a0190614ddc565b9051888203601f190160c08a0152612ec19190614ddc565b935160e08801525161010087015251151561012086015251848203601f1901610140860152612ef09190614ddc565b9151612efb81614c85565b610160840152516101808301520390f35b3461042957602036600319011261042957602061112a600435615238565b3461042957602036600319011261042957600435612f46615486565b805f52600560205260405f20815f52600660205260405f20600182019060ff825460a01c16600981101561087d576005036110bf57600a0154611614576008820154421061162357805460ff60a01b1916600360a11b179055600b01546001600160a01b0316907f5eee47b1ac80373512f7be3c08ec431ba62e1ba456ba5a5fca4541674371a5a55f80a360015f55005b3461042957602036600319011261042957600435805f5260056020525f60018060a01b0360016040832001541691602460405180948193635d4efbe760e01b835260048301525afa8015611071575f90613044575b610a8a90604051918291602083526020830190614ddc565b503d805f833e6130548183614f67565b810190602081830312610429578051906001600160401b038211610429570181601f8201121561042957610a8a9181602061309193519101615202565b61302c565b61309f36614d51565b9093969192976080529291969593946130b6615486565b6080515f52600560205260405f20916080515f52600660205260018060a01b0360405f205460081c1661161457600183019260ff845460a01c16600981101561087d57600481036135f6575060078101544210156135e757835460ff60a01b1916600560a01b179093556004830154600193906008906131369042614fb4565b9101555b61314482826156a2565b156110a2576131538282615803565b8760405161316081614f14565b61316985614e00565b8481528887898d6131ac602086019633885261319d604088019660018060a01b038b16885260608901958c8752369161518f565b9260808801938452369161518f565b60a0860190815260c086019142835260e08701935f85526131d78d6101008a01975f8952369161518f565b9661012089019788525f6101408a01525f6101608a01526080515f52600660205260405f209989519061320982614e00565b61321282614e00565b8b549051610100600160a81b0360089190911b1660ff929092166001600160a81b031990911617178a555160018a0180546001600160a01b039092166001600160a01b031990921691909117905551600289015551805160038901916001600160401b0382116110205761328a82610da68554614fc1565b602090601f8311600114613584576132b892915f91836134a55750508160011b915f199060031b1c19161790565b90555b51805160048801916001600160401b038211611020576132df82610da68554614fc1565b602090601f83116001146135215761330d92915f91836134a55750508160011b915f199060031b1c19161790565b90555b516005860155516006850155600784019051151560ff801983541691161790556008830190518051906001600160401b0382116110205761335582610da68554614fc1565b602090601f83116001146134b05792613391836101609460019b9a99989794600a975f926134a55750508160011b915f199060031b1c19161790565b90555b6133af6101408201516133a681614c85565b6009860161512d565b0151910155604080516080516001600160a01b03939093168152602081019390935233927fea6409ffa96b404983a72c9c9d4671d61eb017a83ccd1be6d7dd11116b57b31f9190a361340081614e00565b03613460575050907f3a01dbd5d560d3e1ee2d4e3ad71b77eb82158e24aeadc9b33c28d2308d56807791613457613444604051938493604085526040850191614f94565b8281036020840152339660805196614f94565b0390a360015f55005b7f2b3294e200098c586ec871b2220366d049161d12fa2f72f714468286530d564893949161349d91604097949751948594339960805199876151c5565b0390a3610e92565b015190505f80610dc7565b90835f52805f20915f5b601f198516811061350957508360019a9998979693600a96938c9361016097601f198116106134f1575b505050811b019055613394565b01515f1960f88460031b161c191690555f80806134e4565b919260206001819286850151815501940192016134ba565b90601f19831691845f52815f20925f5b81811061356c5750908460019594939210613554575b505050811b019055613310565b01515f1960f88460031b161c191690555f8080613547565b92936020600181928786015181550195019301613531565b90601f19831691845f52815f20925f5b8181106135cf57509084600195949392106135b7575b505050811b0190556132bb565b01515f1960f88460031b161c191690555f80806135aa565b92936020600181928786015181550195019301613594565b632077ac9160e11b5f5260045ffd5b919350906007036110bf57600a015480156135e7574210156135e75760029161313a565b34610429576020366003190112610429577fb404cac19fb1cbeff98d325795b08886e3cd8fe8cb1a2f193aac66f13fb239c36040600435613659615850565b613661615486565b806012556011549082519182526020820152a160015f55005b34610429575f366003190112610429576020601154604051908152f35b34610429576136a536614cfb565b9192906136b0615850565b6136b8615486565b815f52600560205260405f2093600185019460ff865460a01c16600981101561087d576006036110bf57835f52600f60205260405f20845f52600660205260405f2096855f52600760205260405f20914260068201554260068a015561371d85614c85565b6003850361376a57505050839495613743915f516020615e9d5f395f51905f5295615520565b61345760405192826137558594614c85565b83526040602084015233966040840191614f94565b9197909261377785614c85565b6002850361391757508596975f516020615e9d5f395f51905f52965f516020615ebd5f395f51905f5260018060a01b0383541660018401936137ca60018060a01b038654169260028301938454916154a4565b5493549054604080516001600160a01b03938416815260208101929092529190941693a3865f516020615efd5f395f51905f5260018060a01b03835460081c16600184019361382a60018060a01b038654169260028301938454916154a4565b5493549054604080516001600160a01b039384168152602081019290925260089590951c9091169390a3857f442b987d3d695de7bef09ef0ffb86cbd737896719696c91e625e7b630ddfada060018060a01b0383541660018401936138a060018060a01b038654169260028301938454916154a4565b5493549054604080516001600160a01b03938416815260208101929092529190941693a3600160a31b60ff60a01b19825416179055835f516020615edd5f395f51905f526060604051602081526014602082015273115cd8d85b185d1a5bdb8818d85b98d95b1b195960621b6040820152a2613743565b92919761392385614c85565b84613b855760078201600160ff19825416179055865f52600860205260405f20986001600160401b03891161102057613966896139608c54614fc1565b8c61500f565b5f99601f8a11600114613b0d5790613a5d92916139a98b805f516020615e9d5f395f51905f529c9d9e5f91613b02575b508160011b915f199060031b1c19161790565b90555b895f52600a60205260405f20600160ff19825416179055897f442b987d3d695de7bef09ef0ffb86cbd737896719696c91e625e7b630ddfada060018060a01b038354166001840193613a0f60018060a01b038654169260028301938454916154a4565b5493549054604080516001600160a01b03938416815260208101929092529190941693a3825481546001830154600290930154926001600160a01b03908116929181169160081c168b615884565b865f516020615efd5f395f51905f5260018060a01b03835460081c166001840193613a9960018060a01b038654169260028301938454916154a4565b5493549054604080516001600160a01b039384168152602081019290925260089590951c9091169390a3805460ff60a01b1916600760a01b179055426002820155600681015480613aec575b5050613743565b613af8600a9142614fb4565b9101558580613ae5565b90508b01358f613996565b601f198a169a815f5260205f209b5f5b818110613b6d57509b613a5d949392918c5f516020615e9d5f395f51905f529c9d9e10613b54575b505060018c811b0190556139ac565b8a01355f1960038f901b60f8161c191690558c80613b45565b8a8301358e556001909d019c60209283019201613b1d565b613c5491613c275f516020615e9d5f395f51905f5298999a60018060a01b038454168b5f516020615ebd5f395f51905f526001870192613bd660018060a01b038554169160028a01928354916154a4565b875493549054604080516001600160a01b03938416815260208101929092529190941693a3805483546001830154600290930154926001600160a01b039081169260089290921c811691168d615884565b805491546001820154600290920154926001600160a01b03928316929182169160089190911c168a615884565b805460ff60a01b1916600760a01b179055426002820155600681015480613aec575050613743565b34610429575f366003190112610429576020600c54604051908152f35b3461042957604036600319011261042957600435600481101561042957602435613cc1615850565b613cc9615486565b61271081116110a25760207f0321811d2436d3a0ce7a4b8b60e76cc43db17a05d329da8d70112f0970d5566d91613cff84614c85565b835f52601382528060405f2055613d1584614c85565b604051908152a260015f55005b3461042957602036600319011261042957613d3b614ca5565b613d43615850565b613d4b615486565b6001600160a01b031680156109b557613d6f815f52600e60205260405f2054151590565b611f4257613d7c81615ccf565b507f8a97f49dc1cdbb6689fe208d9d11adf4d41bbcb24ed935aefaf28569cb2236fa5f80a260015f55005b613db036614d51565b9294969795613dc0929192615486565b865f52600560205260405f2090875f52600660205260405f2060ff600184015460a01c16600981101561087d576005036110bf57600a0154156116325760098201544210156135e7575f888152600f60205260409020546001600160a01b031661161457613e2e818b61562f565b156110a257613e3d818b615803565b604080516001600160a01b038c1681526020810183905233918a917fd1f4db6ee8562757ae7b673eeec3371b0030891837c125e4a5186af12b7888cd9190a3604051998a91613e8b83614ef8565b3383526001600160a01b03909116602083019081526040830191825290613eb336898d61518f565b60608401908152613ec536878c61518f565b906080850191825260a085019242845260c08601945f8652613ee8368c8c61518f565b60e08801525f8e8152600f60205260409020965187546001600160a01b03199081166001600160a01b039283161789559151600189018054909316911617905551600286015551805160038601916001600160401b03821161102057613f5282610da68554614fc1565b602090601f831160011461419a57613f8092915f91836134a55750508160011b915f199060031b1c19161790565b90555b51805160048501916001600160401b03821161102057613fa782610da68554614fc1565b602090601f831160011461412f578260e09795936007979593613fde935f926134a55750508160011b915f199060031b1c19161790565b90555b516005830155516006820155019901519889516001600160401b03811161102057614016816140108454614fc1565b8461500f565b6020601f82116001146140a2578161345797969594939261406f927f5e586ea518a2b5b5c817b963291793a9e0ffe475f164c6c75fb617f533fb66689c9d9e5f926140975750508160011b915f199060031b1c19161790565b90555b600101805460ff60a01b1916600360a11b1790556040513399909687969091876151c5565b015190508e80610dc7565b601f19821690835f52805f20915f5b81811061411757509183917f5e586ea518a2b5b5c817b963291793a9e0ffe475f164c6c75fb617f533fb66689c9d9e6134579a9998979695600195106140ff575b505050811b019055614072565b01515f1960f88460031b161c191690558d80806140f2565b8e8301518455600190930192602092830192016140b1565b90601f19831691845f52815f20925f5b818110614182575092600192859260e09a989660079a98961061416a575b505050811b019055613fe1565b01515f1960f88460031b161c191690555f808061415d565b9293602060018192878601518155019501930161413f565b90601f19831691845f52815f20925f5b8181106141e557509084600195949392106141cd575b505050811b019055613f83565b01515f1960f88460031b161c191690555f80806141c0565b929360206001819287860151815501950193016141aa565b34610429576020366003190112610429576001600160a01b0361421e614ca5565b165f526004602052602060ff60405f2054166040519061423d81614c85565b8152f35b34610429575f36600319011261042957614259615486565b335f52601560205260405f2054801561050957335f5260156020525f60408120555f80808084335af161428a615160565b50156104fa576040519081527fc2211ab2e2caa07cafbb0ebc2b61dcfe690a03b42fe22de1b1b000d6bed346c060203392a260015f55005b34610429576020366003190112610429576142db614ca5565b5f604080516142e981614edd565b828152826020820152015260018060a01b03165f526004602052606060405f2060405161431581614edd565b60ff8254169161432483614c85565b8282526001810154602083019081526002909101546001600160a01b0316604092830190815291519261435681614c85565b8352516020830152516001600160a01b03166040820152f35b3461042957602036600319011261042957600435600281101561042957614397602091614d3a565b54604051908152f35b34610429575f366003190112610429576020601254604051908152f35b34610429576143cb36614cfb565b5050906143d6615486565b5f818152600560205260409020600b01546001600160a01b0316330361051857805f52600560205260405f2060ff600182015460a01c16600981101561087d576005036110bf57815f52600660205260405f20600a8101805461161457614440856009840161512d565b429055614451600583015442614fb4565b600983015561445f84614c85565b600384146144a5575b50506040519161447781614c85565b82527f03b9ac93adad16dc69c25c80970f9baf34bfc36d9ff95e4b89ef491f02169df660203393a360015f55005b6144af9183615520565b8280614468565b34610429576020366003190112610429576004355f52600a602052602060ff60405f2054166040519015158152f35b34610429576020366003190112610429576001600160a01b03614506614ca5565b165f526004602052602060ff60405f20541661112a81614c85565b346104295760203660031901126104295760043561453d615486565b805f52600560205260ff600160405f20015460a01c16600981101561087d576004036110bf57805f52600560205260405f2060078101544210611623575f8281526006602052604090205460081c6001600160a01b0316611614575f82815260076020908152604090912060018301805460ff60a01b1916600760a01b1781556006840180547f611fac26c7ea379a6691576c350b804a81e881eb5b0dd7cabad7417339c14e029560ff9492918015614694576145fc600a9142614fb4565b915b0155865f52600885526146176003830160405f20615054565b5415614631575b505460a81c1660405190610e8e81614c85565b855f516020615ebd5f395f51905f5260018060a01b03835416600184019361466a60018060a01b038654169260028301938454916154a4565b5493549054604080516001600160a01b03938416815260208101929092529190941693a38561461e565b50600a5f916145fe565b34610429576040366003190112610429576004356024356001600160401b038111610429576146d1903690600401614cce565b906146da615486565b5f838152600560205260409020600101546001600160a01b0316330361051857825f52600560205260ff600160405f20015460a01c16600981101561087d576001036110bf577f1d3636e2e286bb6381c16825b862d8a08fab3845eeab2a5940162aa6794aeab191835f526005602052600160405f2001600160a11b60ff60a01b19825416179055614779604051928392602084526020840191614f94565b0390a260015f55005b346104295760403660031901126104295760043561479e614c8f565b6147a6615486565b815f52600560205260405f209160018060a01b03835416918233036105185760ff600185015460a01c16600981101561087d576003036110bf576001600160a01b03169283156109b55780546001600160a01b031916841790557f34663fb7cdece45f4bed32532aefe29f2e70265a8680868bf2c8c16d9dc201ce5f80a460015f55005b346104295760203660031901126104295760405161484781614ec1565b5f8152602081015f9052604081015f9052606081015f9052608081015f905260a081015f905260c081015f905260e081015f905261010081015f905261012081015f905261014081015f905261016081015f905261018081015f90526101a081015f90526101c0015f90526004355f52600560205260405f206040516148cc81614ec1565b81546001600160a01b0390811682526001830154908116602083019081529260408301929161490260ff60a083901c1685614f88565b60a81c60ff16606083019061491681614c85565b8152600282015460808401908152600383015460a08501908152600484015460c08601908152600585015460e08701908152600686015491610100880192835260078701549361012089019485526008880154956101408a019687526009890154976101608b01988952600a8a0154996101808c019a8b52600b01549a6101a081019b600160a01b6001900381168d5260a01c60ff169c6101c082019d8e6149bd82614c85565b526040805192516001600160a01b0390811684529f51909f16602083015251909d6149eb91908f0190614c78565b516149f581614c85565b60608d01525160808c01525160a08b01525160c08a01525160e08901525161010088015251610120870152516101408601525161016085015251610180840152516001600160a01b03166101a083015251614a4f81614c85565b6101c08201526101e090f35b34610429575f366003190112610429576020600954604051908152f35b34610429575f366003190112610429576020604051620151808152f35b34610429576020366003190112610429576004355f526006602052602060405f2054600260ff8216614ac681614e00565b149081614ad9575b506040519015158152f35b60081c6001600160a01b03161515905082614ace565b34610429575f366003190112610429576040518060206002549283815201809260025f527f405787fa12a823e0f2b7631cc41b3ba8828b3321ca811111fa75cd3aa3bb5ace905f5b818110614b985750505081614b4d910382614f67565b604051918291602083019060208452518091526040830191905f5b818110614b76575050500390f35b82516001600160a01b0316845285945060209384019390920191600101614b68565b8254845260209093019260019283019201614b37565b34610429575f36600319011261042957602060405162278d008152f35b3461042957602036600319011261042957600435614be7615486565b5f818152600560205260409020600101546001600160a01b0316330361051857805f52600560205260ff600160405f20015460a01c16600981101561087d576001036110bf575f818152600560205260408120600101805460ff60a01b1916600360a01b1790557f4df002aa17b4cb1bfbfe583e82f5b08568325f27c40687fe4b8e850211b571519080a260015f55005b90600982101561087d5752565b6004111561087d57565b602435906001600160a01b038216820361042957565b600435906001600160a01b038216820361042957565b6024359063ffffffff8216820361042957565b9181601f84011215610429578235916001600160401b038311610429576020838186019501011161042957565b6060600319820112610429576004359160243560048110156104295791604435906001600160401b03821161042957614d3691600401614cce565b9091565b600281101561087d575f52601460205260405f2090565b9060c060031983011261042957600435916024356001600160a01b03811681036104295791604435916064356001600160401b0381116104295781614d9891600401614cce565b929092916084356001600160401b0381116104295781614dba91600401614cce565b9290929160a435906001600160401b03821161042957614d3691600401614cce565b805180835260209291819084018484015e5f828201840152601f01601f1916010190565b6003111561087d57565b606090600319011261042957600435600381101561042957906024356001600160a01b0381168103610429579060443590565b602081528151614e4c81614c85565b602082015261010060e0614e6f6020850151836040860152610120850190614ddc565b936040810151151560608501526060810151151560808501526080810151151560a085015260a081015160c085015260c0810151614eac81614c85565b82850152015191614ebc83614c85565b015290565b6101e081019081106001600160401b0382111761102057604052565b606081019081106001600160401b0382111761102057604052565b61010081019081106001600160401b0382111761102057604052565b61018081019081106001600160401b0382111761102057604052565b608081019081106001600160401b0382111761102057604052565b61026081019081106001600160401b0382111761102057604052565b90601f801991011681019081106001600160401b0382111761102057604052565b600982101561087d5752565b908060209392818452848401375f828201840152601f01601f1916010190565b9190820180921161270357565b90600182811c92168015614fef575b6020831014614fdb57565b634e487b7160e01b5f52602260045260245ffd5b91607f1691614fd0565b818110615004575050565b5f8155600101614ff9565b9190601f811161501e57505050565b615048925f5260205f20906020601f840160051c8301931061504a575b601f0160051c0190614ff9565b565b909150819061503b565b919091828114615128576150688354614fc1565b6001600160401b03811161102057615084816140108454614fc1565b5f93601f82116001146150c2576150b392939482915f926150b75750508160011b915f199060031b1c19161790565b9055565b015490505f80610dc7565b601f198216905f5260205f2094835f5260205f20915f5b818110615110575095836001959697106150f8575b505050811b019055565b01545f1960f88460031b161c191690555f80806150ee565b9192600180602092868b0154815501940192016150d9565b509050565b9061513781614c85565b60ff80198354169116179055565b6001600160401b03811161102057601f01601f191660200190565b3d1561518a573d9061517182615145565b9161517f6040519384614f67565b82523d5f602084013e565b606090565b92919261519b82615145565b916151a96040519384614f67565b829481845281830111610429578281602093845f960137010152565b949290936151e36151ff97956151f194606089526060890191614f94565b918683036020880152614f94565b926040818503910152614f94565b90565b92919261520e82615145565b9161521c6040519384614f67565b829481845281830111610429578281602093845f96015e010152565b805f52600560205260405f2060ff600182015460a01c16600981101561087d576007036152c557600a015480151590816152bb575b50615279575b50600190565b5f8181526006602052604090205460081c6001600160a01b0316156152b6575f526006602052600660405f200154156152b2575f615273565b5f90565b505f90565b905042105f61526d565b50505f90565b9060405191825f8254926152de84614fc1565b80845293600181169081156153475750600114615303575b5061504892500383614f67565b90505f9291925260205f20905f915b81831061532b575050906020615048928201015f6152f6565b6020919350806001915483858901015201910190918492615312565b90506020925061504894915060ff191682840152151560051b8201015f6152f6565b8054821015615382575f5260205f209060011b01905f90565b634e487b7160e01b5f52603260045260245ffd5b604051906153a382614ef8565b5f60e083828152606060208201528260408201528260608201528260808201528260a08201528260c08201520152565b5f90815260056020908152604080832060069092529091205460081c6001600160a01b03166152b65760ff600182015460a01c16600981101561087d57600481148061545f575b61545857600714908161544a575b8161543c575b50615437575f90565b600190565b600a9150015442105f61542e565b600a81015415159150615428565b5050600190565b506007820154421061541a565b9080601f830112156104295781516151ff92602001615202565b60025f54146154955760025f55565b633ee5aeb560e01b5f5260045ffd5b906001600160a01b0316806154cc57505f80809381935af16154c4615160565b50156104fa57565b60405163a9059cbb60e01b60208201526001600160a01b0392909216602483015260448083019390935291815261504891615508606483614f67565b615e44565b8181029291811591840414171561270357565b905f9260099280855260076020526155666040862060018060a01b03845460081c169060018060a01b03815416600260018060a01b036001840154169201549285615884565b81546001830154600284015461558d9290916001600160a01b039081169160081c166154a4565b84526007602052600360408520858155856001820155856002820155016155b48154614fc1565b90816155ec575b5050426006919091015560018101805460ff60a01b1916600360a01b17905560078101839055600881018390550155565b81601f8793116001146156035750555b5f806155bb565b8183526020832061561f91601f0160051c810190600101614ff9565b80825281602081209155556155fc565b9060025f52600b60205260405f20905f928254935b8481106156545750505050505f90565b61565e8185615369565b50546001600160a01b038381169116148061568a575b61568057600101615644565b5050505050600190565b5060016156978286615369565b500154831015615674565b9060015f52600b60205260405f20905f928254935b8481106156c75750505050505f90565b6156d18185615369565b50546001600160a01b03838116911614806156f3575b615680576001016156b7565b5060016157008286615369565b5001548310156156e7565b905f808052600b6020527fdf7de25b7f1fd6d0b5205f0e18f1f35bd7b8d84cce336588d184533ce43a6f768054939092915b84811061574d5750505050505f90565b6157578185615369565b50546001600160a01b0383811691161480615779575b6156805760010161573d565b5060016157868286615369565b50015483101561576d565b91909161579d81614e00565b5f52600b60205260405f20905f928254935b8481106157bf5750505050505f90565b6157c98185615369565b50546001600160a01b03838116911614806157eb575b615680576001016157af565b5060016157f88286615369565b5001548310156157df565b6001600160a01b03168061581a5750341061264357565b9061504891604051916323b872dd60e01b6020840152336024840152306044840152606483015260648252615508608483614f67565b6001546001600160a01b0316330361586457565b63118cdaa760e01b5f523360045260245ffd5b9190820391821161270357565b9293916158c17fc7ca4343d18613861b5a98f8467aafcee3bafaf53401a00ffeae99c11e4ec32d93866158bb8260011c8093615877565b946154a4565b835f526005602052837f2af81b1d7fa0086d9a5eb7e98cd9af899bebbbdf6f61bb1c9f8c395c915168056040600b815f200160ff815460a01c1661590481614c85565b5f52601360205261271061591b835f20548861550d565b046159268188615877565b9160015f526014602052835f2061593e848254614fb4565b905581151580806159c6575b156159a15750546001600160a01b03165f90815260156020528390208054615973908390614fb4565b90555b82519182526020820152a2604080516001600160a01b039687168152602081019390935294169390a3565b9050156159765760015f526014602052825f206159bf828254614fb4565b9055615976565b506001600160a01b038c161561594a565b909115615458576001600160a01b03165f9081526004602052604090205460039060ff16615a0481614c85565b149081615a1b575b50615a1657600290565b600390565b6001600160a01b03165f908152600e602052604081205415159150615a0c565b91825f52600760205260405f2060ff600983015416426006840155615a5f81614c85565b60038103615a6e575050505050565b615a7781614c85565b60028103615b2a57508054600182810154600290930154909493615ad1939092615aae92916001600160a01b0390811691166154a4565b838060a01b03815460081c16906002858060a01b038683015416910154916154a4565b01600160a31b60ff60a01b198254161790555f516020615edd5f395f51905f52606060405160208152601860208201527f43616e63656c6c65642062792054727574684b656570657200000000000000006040820152a2565b93926020917fd479d35c2c3aee3d59f9972a1214f8effa0c54c4f8ff4dcf020913c0a5e27c6293615b5a87614c85565b86615c505790816007615bf39301600160ff19825416179055865f5260088552615b8a6008820160405f20615054565b5f878152600a865260409020805460ff191660019081179091558154908201546002830154615bca9290916001600160a01b039081169160081c166154a4565b5481546001830154600290930154926001600160a01b03908116929181169160081c1688615884565b60018101805460ff60a01b1916600760a01b179055426002820155600681015480615c3b575b50600b01546040516001600160a01b0390911694615c3681614c85565b8152a3565b615c459042614fb4565b600a8201555f615c19565b615bf391865f5260088552615c6b6003820160405f20615054565b805460018201546002830154615c8f9290916001600160a01b0390811691166154a4565b5481546001830154600290930154926001600160a01b039081169260089290921c8116911688615884565b8054821015615382575f5260205f2001905f90565b805f52600e60205260405f2054155f146152b657600d54600160401b81101561102057615d1e615d08826001859401600d55600d615cba565b819391549060031b91821b915f19901b19161790565b9055600d54905f52600e60205260405f2055600190565b805f52600360205260405f2054155f146152b657600254600160401b81101561102057615d6e615d088260018594016002556002615cba565b9055600254905f52600360205260405f2055600190565b5f818152600e602052604090205480156152c5575f19810181811161270357600d545f1981019190821161270357818103615e0c575b505050600d548015615df8575f1901615dd581600d615cba565b8154905f199060031b1b19169055600d555f52600e6020525f6040812055600190565b634e487b7160e01b5f52603160045260245ffd5b615e2e615e1d615d0893600d615cba565b90549060031b1c928392600d615cba565b90555f52600e60205260405f20555f8080615dbb565b905f602091828151910182855af115611071575f513d615e9357506001600160a01b0381163b155b615e735750565b635274afe760e01b5f9081526001600160a01b0391909116600452602490fd5b60011415615e6c56feaf6f27c64b10c07c69a5352dbb4fdd9f8fc1e79000212fb0657cd646c702cad836aaf619042b10857476b78f0cfc78a8c8229df514ab47e51b5d9a57fd195e2b9a8c467359ab1d6175753c064ac499f980d4d98a224b47d7054d92b2ca86f2046649e3f6ab28e61235ff3c623c0c5f7b5e081a3a6444eeee99020110ac0e5ab5a26469706673582212205bbf7ab9ea0a176d1bca7fb84465188940ad51541a0cdf56afc2d390ffa2803664736f6c634300081d0033",
  "linkReferences": {},
  "deployedLinkReferences": {},
  "immutableReferences": {},
  "inputSourceName": "project/contracts/TruthEngine/TruthEngine.sol",
  "buildInfoId": "solc-0_8_29-d52a32f795c814f269e8229cee8d3b684800d7d9"
}